:100CFA00160EC0F9A4B0999282F8809040792430F7
:080D0A00191202780010BFFF6E
:10080000120CE1752915752615750D1575281575C8
:100810002B15752415752715750C15120D1E7FCC1B
:10082000120C2F7F44120C2F120B1F8F0B8E0A8D70
:10083000098C087BA07A8679017800120B908F29A9
:100840007BA07A8679017800AF0BAE0AAD09AC08BF
:10085000120B90AC00AD01AE02AF03E47B107A271F
:10086000F9F8120B90EF240AF526E47B107A27F9A9
:10087000F8AF0BAE0AAD09AC08120B90AC00AD019D
:10088000AE02AF03E47BE87A03F9F8120B908F0D08
:10089000E47BE87A03F9F8AF0BAE0AAD09AC0812B5
:1008A0000B90AC00AD01AE02AF03E47B64FAF9F843
:1008B000120B908F28E47B64FAF9F8AF0BAE0AAD07
:1008C00009AC08120B90AC00AD01AE02AF03E47BA3
:1008D0000AFAF9F8120B908F2BE47B0AFAF9F8AFB9
:1008E0000BAE0AAD09AC08120B90AF038F247FE06A
:1008F0007E937D047C00AB0BAA0AA909A808D31239
:10090000099C500E75A0A0E4F58075A0807580FE4E
:10091000800C75A0807580FF75A0A07580EFAF2951
:100920007E00AD267C00120C56AF0D7E00AD287CFB
:1009300000120C7BAF2B7E00AD247C00120C9DAF0F
:0D094000277E00AD0C7C00120CBF020828C1
:0A0D1E00C294120D13D294020D13BB
:020C2F008F3103
:100C3100E4F532C3E5329408748094805016C2946E
:100C4100E531139294120D28D294E531C313F53195
:040C5100053280DF09
:010C5500227C
:100C0700E4F531C3E5319408748094805017C29499
:100C1700E532C313F532D294309403433280120D78
:070C270028053180DEAF3229
:010C2E0022A3
:100B1F00120D1E7FCC120C2F7F44120C2F120D13AF
:100B2F00120D1E7FCC120C2F7FBE120C2F120C0732
:100B3F008F2C120C07EF540FFFE48F30F52FF52E8B
:100B4F00F52DAE2FAD2EAC2D78081209B28F308E49
:100B5F002F8D2E8C2DE52C4530F530E52FF52FE51B
:100B6F002EF52EE52DF52DAF30AE2FAD2EFCE47BFF
:100B7F00717A02F9F812094D8F308E2F8D2E8C2D30
:010B8F002243
:0A0D130000007F067E5DDEFEDFFCBF
:010D1D0022B3
:090D2800007F017ED9DEFEDFFC34
:010D3100229F
:100C56008C2C8D2D75A0C0758001120BD475A0C08B
:100C660075800275A0E0740E252DF8E6F5807F01EB
:050C76007E00020BE20C
:0E0BD40075A0E0740E2FF8E6F5807F017E001C
:100BE200E4FDFCC3ED9FEE6480F8EC648098501441
:100BF2007B4D7A03EB1B70011AEB4A70F70DBD00B7
:040C0200010C80DF82
:010C060022CB
:100C7B008D8275A0C0758004120BD475A0C07580D1
:100C8B000875A0E0AF82740E2FF8E6F5807F0102A5
:020C9B000BE26A
:100C9D008D8275A0C0758010120BD475A0C07580A3
:100CAD002075A0E0AF82740E2FF8E6F5807F01026B
:020CBD000BE248
:100CBF008D8275A0C0758040120BD475A0C0758051
:100CCF008075A0E0AF82740E2FF8E6F5807F0102E9
:020CDF000BE226
:100CE10075A0A0E4F58075A0C07580FF75A0E075C2
:090CF10080FF75A0807580FF22D0
:03000000020A935E
:0C0A9300787FE4F6D8FD758132020ADAA3
:10094D00E88FF0A4CC8BF0A42CFCE98EF0A42CFC49
:10095D008AF0EDA42CFCEA8EF0A4CDA8F08BF0A4C7
:10096D002DCC3825F0FDE98FF0A42CCD35F0FCEB26
:10097D008EF0A4FEA9F0EB8FF0A4CFC5F02ECD39EB
:0F098D00FEE43CFCEAA42DCE35F0FDE43CFC2258
:100B9000C2D5E830E70FB2D5E4C39BFBE49AFAE490
:100BA00099F9E498F8EC30E717B2D5120BC6120A9F
:100BB00001E4C39BFBE49AFAE499F9E498F8800312
:100BC000120A0130D50DE4C39FFFE49EFEE49DFDB3
:040BD000E49CFC2283
:10099C00EB9FF5F0EA9E42F0E99D42F0EC6480C8D2
:0609AC0064809845F02272
:1009B200E8600FEFC333FFEE33FEED33FDEC33FCA3
:0309C200D8F12247
:100A9F00020800E493A3F8E493A34003F68001F265
:100AAF0008DFF48029E493A3F85407240CC8C33358
:100ABF00C4540F4420C8834004F456800146F6DF27
:100ACF00E4800B0102040810204080900CFAE47EB1
:100ADF00019360BCA3FF543F30E509541FFEE4931C
:100AEF00A360010ECF54C025E060A840B8E493A3E3
:100AFF00FAE493A3F8E493A3C8C582C8CAC583CA0E
:100B0F00F0A3C8C582C8CAC583CADFE9DEE780BEC5
:010D120000E0
:1009C50075F008758200EF2FFFEE33FECD33CDCCE9
:1009D50033CCC58233C5829BED9AEC99E58298406C
:1009E5000CF582EE9BFEED9AFDEC99FC0FD5F0D649
:1009F500E4CEFBE4CDFAE4CCF9A88222B800C1B973
:100A05000059BA002DEC8BF084CFCECDFCE5F0CBB0
:100A1500F97818EF2FFFEE33FEED33FDEC33FCEBE9
:100A250033FB10D703994004EB99FB0FD8E5E4F9A4
:100A3500FA227818EF2FFFEE33FEED33FDEC33FC91
:100A4500C933C910D7059BE99A4007EC9BFCE99A85
:100A5500F90FD8E0E4C9FAE4CCFB2275F010EF2FCA
:100A6500FFEE33FEED33FDCC33CCC833C810D707CA
:100A75009BEC9AE899400AED9BFDEC9AFCE899F805
:0E0A85000FD5F0DAE4CDFBE4CCFAE4C8F92298
:00000001FF
