:101C7800042E3F80000004320000000004360000FB
:101C88000000043A000000000422000000000426BE
:0A1C980000000000042A0000000014
:060D5A009000C6121A68A9
:100D60009000D6E0FCA3E0FDA3E0FEA3E0FF90002E
:100D7000D6E0F8A3E0F9A3E0FAA3E0FB12161BC04B
:100D800004C005C006C0079000D2E0FCA3E0FDA3AC
:100D9000E0FEA3E0FFA804A905AA06FB12161BD0DB
:100DA00003D002D001D00012152AC004C005C0062D
:100DB000C0079000DAE0FCA3E0FDA3E0FEA3E0FFA3
:100DC000A804A905AA06FB12161BD003D002D00165
:100DD000D00012152A121F0C783E121A5C9000D215
:100DE000E0FCA3E0FDA3E0FEA3E0FF783E121A338F
:100DF0001217249000D2121A689000D6E0FCA3E0EB
:100E0000FDA3E0FEA3E0FF783E121A3312172490F0
:100E100000D6121A689000DAE0FCA3E0FDA3E0FE21
:100E2000A3E0FF783E121A331217249000DA121A48
:100E3000687836121A0B782E121A3312161BC00459
:100E4000C005C006C007783A121A0B7832121A335E
:100E500012161BD003D002D001D000121526E4FBDD
:100E6000FAF9784012161B7842121A5C783A121A74
:100E70000B7836121A3312161BC004C005C006C008
:100E8000077832121A0B782E121A3312161BD0035F
:100E9000D002D001D00012152AE4FBFAF9784012F2
:100EA000161B7846121A5C7832121A0B7832121A14
:100EB0003312161BC004C005C006C007782E121AD4
:100EC0000B782E121A3312161BD003D002D001D089
:100ED00000121526C004C005C006C0077836121AD5
:100EE0000B7836121A3312161BA804A905AA06ABF2
:100EF00007D007D006D005D004121526C004C005BF
:100F0000C006C007783A121A0B783A121A33121632
:100F10001BD003D002D001D00012152A784A121A31
:100F20005C7846121A0B9000DAE0F8A3E0F9A3E02F
:100F3000FAA3E0FB12161BC004C005C006C0077868
:100F40004A121A0B9000D6E0F8A3E0F9A3E0FAA346
:100F5000E0FB12161BD003D002D001D000121526E0
:100F6000784E121A5C784A121A0B9000D2E0F8A35D
:100F7000E0F9A3E0FAA3E0FB12161BC004C005C011
:100F800006C0077842121A0B9000DAE0F8A3E0F9E5
:100F9000A3E0FAA3E0FB12161BD003D002D001D0CD
:100FA000001215267852121A5C7842121A0B900021
:100FB000D6E0F8A3E0F9A3E0FAA3E0FB12161BC009
:100FC00004C005C006C0077846121A0B9000D2E094
:100FD000F8A3E0F9A3E0FAA3E0FB12161BD003D0BC
:100FE00002D001D0001215267856121A5C7822120F
:100FF0001A33C000C001C002C0037F6F7E127D8320
:101000007C3A784E121A3312161BD003D002D0014C
:10101000D00012152A7822121A5C7826121A33C0D0
:1010200000C001C002C0037F6F7E127D837C3A78CE
:1010300052121A3312161BD003D002D001D0001264
:10104000152A7826121A5C782A121A33C000C001B9
:10105000C002C0037F6F7E127D837C3A7856121ADD
:101060003312161BD003D002D001D00012152A78FB
:101070002A121A5C7FCD7ECC7D4C7C3F784E121AB2
:101080003312161B9000C6E0F8A3E0F9A3E0FAA320
:10109000E0FB12152A7822121A3312152A9000C684
:1010A000121A687FCD7ECC7D4C7C3F7852121A3369
:1010B00012161B9000CAE0F8A3E0F9A3E0FAA3E03F
:1010C000FB12152A7826121A3312152A9000CA121A
:1010D0001A687FCD7ECC7D4C7C3F7856121A331235
:1010E000161B9000CEE0F8A3E0F9A3E0FAA3E0FB22
:1010F00012152A782A121A3312152A9000CE121AC3
:1011000068782E121A33C000C001C002C0037832C2
:10111000121A0B12183A9000C6E0F8A3E0F9A3E007
:10112000FAA3E0FB12161BC004C005C006C007905E
:1011300000CAE0FCA3E0FDA3E0FEA3E0FF783612C6
:101140001A3312161BA804A905AA06AB07D007D0AC
:1011500006D005D004121526C004C005C006C0077D
:101160009000CEE0FCA3E0FDA3E0FEA3E0FF783A10
:10117000121A3312161BA804A905AA06AB07D0073A
:10118000D006D005D0041215267B6F7A12798378A9
:101190003B12161BD003D002D001D00012152A78C2
:1011A0002E121A5C7832121A33C000C001C002C07D
:1011B000039000CEE0FCA3E0FDA3E0FEA3E0FF78F7
:1011C00036121A3312161BC004C005C006C00790A1
:1011D00000C6E0FCA3E0FDA3E0FEA3E0FF782E1232
:1011E0001A3312161BD003D002D001D00012152AD8
:1011F000C004C005C006C0079000CAE0FCA3E0FD23
:10120000A3E0FEA3E0FF783A121A3312161BA804DB
:10121000A905AA06AB07D007D006D005D004121541
:10122000267B6F7A127983783B12161BD003D0028B
:10123000D001D00012152A7832121A5C7836121AB0
:1012400033C000C001C002C0039000CEE0FCA3E0A8
:10125000FDA3E0FEA3E0FF7832121A3312161BC082
:1012600004C005C006C0079000CAE0FCA3E0FDA3CF
:10127000E0FEA3E0FF782E121A3312161BD003D023
:1012800002D001D000121526C004C005C006C00758
:101290009000C6E0FCA3E0FDA3E0FEA3E0FF783AE7
:1012A000121A3312161BD003D002D001D00012152F
:1012B0002A7B6F7A127983783B12161BD003D002F7
:1012C000D001D00012152A7836121A5C783A121A18
:1012D00033C000C001C002C0039000CAE0FCA3E01C
:1012E000FDA3E0FEA3E0FF7832121A3312161BC0F2
:1012F00004C005C006C0079000CEE0FCA3E0FDA33B
:10130000E0FEA3E0FF782E121A3312161BD003D092
:1013100002D001D00012152AC004C005C006C007C3
:101320009000C6E0FCA3E0FDA3E0FEA3E0FF78365A
:10133000121A3312161BA804A905AA06AB07D00778
:10134000D006D005D0041215267B6F7A12798378E7
:101350003B12161BD003D002D001D00012152A7800
:101360003A121A5C7832121A0B7832121A331216A9
:101370001BC004C005C006C007782E121A0B782EB9
:10138000121A3312161BD003D002D001D00012154E
:101390002AC004C005C006C0077836121A0B78367A
:1013A000121A3312161BD003D002D001D00012152E
:1013B0002AC004C005C006C007783A121A0BA80458
:1013C000A905AA06AB0712161BD003D002D001D084
:1013D0000012152A121F0C783E121A5C782E121A6F
:1013E0000B783E121A33121724782E121A5C7832B8
:1013F000121A0B783E121A331217247832121A5C22
:101400007836121A0B783E121A33121724783612D5
:101410001A5C783A121A0B783E121A331217247893
:101420003A121A5C783A121A0B7832121A331216E0
:101430001BC004C005C006C0077836121A0B782EF0
:10144000121A3312161BD003D002D001D00012158D
:1014500026E4FBFAF9784012161B12226D7BE17A22
:101460002E7965784212161B1218898E088F09E4AE
:10147000FFFEFD7C40782E121A3312161B783212B2
:101480001A3312161BC004C005C006C007E4FFFED5
:10149000FD7C407836121A3312161B783A121A3332
:1014A00012161BD003D002D001D00012152AC0049E
:1014B000C005C006C007E4FFFEFD7C407836121A66
:1014C0003312161B7836121A3312161BC004C005CD
:1014D000C006C007E4FFFEFD7CC07832121A33124A
:1014E000161B7832121A3312161BD003D002D00109
:1014F000D000121526E4FBFA7980783F12152A9065
:1015000000E2121A68D007D006D005D00412205C81
:101510007B337A337965784212161B1218898E0A4A
:021520008F0B2F
:0115220022A6
:0724B000D2B51224B7C2B53A
:0424B7007F0BDFFEBA
:0124BB0022FE
:0F248700D2B4D2B51224B7C2B41224B7C2B52250
:0C24BC00C2B4D2B51224B7D2B40224B7C7
:0D249600D2B51224B7A2B4C2B51224B722E9
:02244C00AE07D9
:10244E00E4FDEE25E0FE92B41224B00DEDB408F2D8
:03245E00022496BF
:1023FC00E4FED2B4FDEE25E0FED2B51224B7A2B4B1
:10240C00E4334EFEC2B51224B70DEDB408E7AF06A7
:01241C00229D
:10241D00AC05AB071224877FD012244CAF031224D6
:09242D004CAF0412244C0224BC43
:02234700AC07E1
:102349001224877FD012244CAF0412244C12248704
:102359007FD112244C1223FCAE07D2B41224B0123E
:0423690024BCAF06DB
:01236D00224D
:1023B600E4FD7F6B12241D7D077F1912241D7D0409
:1023C6007F1A12241D7D087F1B12241D7D087F1C89
:0323D60002241DC1
:0223D900AB0750
:1023DB00122347AA07EB04FF122347AD07AF02EF07
:1023EB003395E0EFFEED3395E0FCE42DFFEE3CFE84
:0123FB0022BF
:101CA2004500F900000000A14500F400000000A278
:10246100E4FEEEC39F500D000000000000000000DC
:04247100000E80EEEB
:012475002244
:0A236E00EBF0A3EAF0A3E9F0C2A42B
:10237800E4FEEF3392A6EF25E0FFD2A7A281E43373
:092388004FFFC2A70EEEB408E9F4
:012391002229
:0C24A300C2A4122378E4FF122378D2A414
:0124AF00220A
:10247600C2A4122378AC07AF05122378D2A4AF0406
:012486002233
:032316009000EF45
:1023190012236EE4FD9000F2E0FFEDC39F501CE430
:10232900FF1223789000EFE0FBA3E0FAA3E0F98D18
:0D23390082758300EF1219700D80DAD2A4B6
:012346002274
:0E222B007B017A0079F49000F27405F07F2AAE
:032239009000EF23
:10223C0012236E9000F3EFF0E4FD9000F2E0FFED5E
:10224C00C39F501A9000EFE0FBA3E475F001121944
:10225C00E7A9F0FA121957FF1223780D80DCD2A4EB
:01226C00224F
:1022E2009000EBEBF0A3EAF0A3E9F0C2A512222BD7
:1022F2009000EBE0FBA3E0FAA3E0F99000F2740C8B
:10230200F07FA01222397D0E7F20122476D2A57F83
:04231200FA02246146
:102185009000EBEBF0A3EAF0A3E9F0C2A57B017A9E
:102195000079F99000F27405F07F301222397D0F35
:1021A5007F201224767F071224A38F2030061690F5
:1021B50000EBE0FBA3E0FAA3E0F99000F2740CF069
:1021C5007F61122316AD207F27122476D2A57FC802
:0321D50002246180
:1021D800C2A5D2A4C2A77FC8122461122461122406
:1021E80061C2A5D2A4C2A77B017A0079F99000F256
:1021F8007405F07F3012223912222B7D017F2112C3
:1022080024767F221224761D7F251224767D0C7F6A
:10221800311224767D077F261224767FC812246126
:032228000224612C
:101FB400E4F594F593F592F591F596F595F5B2F56A
:101FC400B1F5B4F5B3F5CAF5C9F5CCF5CBF5E2F541
:101FD400E175960EF59575B280F5B175BA8075F117
:101FE400B090FFF27410F0E4F5F6F5F790FFF0749A
:101FF40003F0A374E9F090FF04E4F090FF14F09070
:10200400FF24F090FF34F090FF007403F0A374E811
:10201400F0A37403F0A374E9F090FF107403F0A329
:1020240074E8F0A37403F0A374E9F090FF20740340
:10203400F0A374E8F0A37403F0A374E9F090FF3004
:102044007403F0A374E8F0A37403F0A374E9F075C7
:08205400F58F90FFF2E4F02289
:1022A8009000EBEEF0A3EFF09000EBE090FF00F071
:1022B8009000EBA3E090FF01F0EC90FF10F0A3ED8D
:1022C800F0EA90FF20F0A3EBF09000F1E0FCA3E02F
:0A22D800FDEC90FF30F0A3EDF022C2
:101CB20042000C000042002A000042006A0000427A
:101CC200006C000042006E00004200700000420002
:101CD200220000420028000042002C000042002E98
:101CE20000004200630000420066000042006800FB
:101CF200004100580041005F0041006200440012B0
:101D020000000000440016000000004400BA000079
:101D120000004400B2000000004400C200000000C5
:101D22004400480000000044004C00000000440051
:101D3200500000000044001A0000000044001E0091
:101D420000000044002400000000440034000000B1
:101D5200004400300000000044003800000000444D
:101D6200000E0000000002080000020A0000440009
:101D7200540000000044005B0000000042006000CC
:101D8200004400720000000044007600000000449D
:101D9200007A0000000044008A0000000044008E27
:101DA200000000004400B6000000004400000000F3
:101DB20000004400BE0000000044000400000000D7
:101DC2004400080000000044003E000000004400FF
:101DD200440000000044008200000000440086002D
:031DE200000000FE
:03000B0002000EE2
:10000E00C0E0C0F0C083C082C0D075D000C000C0B8
:10001E0001C002C003C004C005C006C0077F431262
:10002E0023D9AC06AD07EC1218509000B2121A6824
:10003E007F451223D9AC06AD07EC1218509000BACA
:10004E00121A687F471223D9AC06AD07EC1218506E
:10005E009000C2121A687F3D1223D9AC06AD07EC90
:10006E0012185090004C121A687F3B1223D9AC061E
:10007E00AD07EC121850900048121A687F3F1223F9
:10008E00D9AC06AD07EC121850900050121A6890B9
:10009E000030E0FCA3E0FDA3E0FEA3E0FF90001221
:1000AE00121A68900034E0FCA3E0FDA3E0FEA3E08A
:1000BE00FF900016121A68E4FBFAF9784690004891
:1000CE00E0FCA3E0FDA3E0FEA3E0FF1217249000E6
:1000DE001A121A68E4FBFAF97846900050E0FCA375
:1000EE00E0FDA3E0FEA3E0FF121724900024121AF5
:1000FE0068E4FBFAF9784690004CE0FCA3E0FDA31F
:10010E00E0FEA3E0FF12172490001E121A68E4FB13
:10011E00FA798378429000B2E0FCA3E0FDA3E0FE02
:10012E00A3E0FF121724900030121A68E4FBFA794C
:10013E008378429000BAE0FCA3E0FDA3E0FEA3E0CA
:10014E00FF121724900034121A68E4FBFA798378B0
:10015E00429000C2E0FCA3E0FDA3E0FEA3E0FF128C
:10016E001724900038121A687F397EFA7D8E7C3CF7
:10017E00900030E0F8A3E0F9A3E0FAA3E0FB12163A
:10018E001BC004C005C006C0077F397EFA7D8E7C79
:10019E003C900034E0F8A3E0F9A3E0FAA3E0FB12F0
:1001AE00161B9000CA121A687F397EFA7D8E7C3C2F
:1001BE00900038E0F8A3E0F9A3E0FAA3E0FB1216F2
:1001CE001B9000CE121A6890001AE0FCA3E0FDA36B
:1001DE00E0FEA3E0FF9000D2121A6890001EE0FC31
:1001EE00A3E0FDA3E0FEA3E0FF9000D6121A6890F4
:1001FE000024E0FCA3E0FDA3E0FEA3E0FF9000DA04
:10020E00121A68D007D006D005D004120D5A9000ED
:10021E0092E0FEA3E0FF90002AEEF0A3EFF0900034
:10022E0059E0FD900065E06D705D90003CE004F0DB
:10023E00C3946440577465F09000987480F0A3F0F6
:10024E00A3F0EF4E6046900093E024FFF0900092F2
:10025E00E034FFF0E0FFA3E090002ACFF0A3EFF030
:10026E0090002AE0FAA3E0FB7C007DFFFFAE0212B5
:10027E0019929000A2EFF07C007DFFAF03AE021248
:10028E001992A3EDF0800590003CE4F0900065E03B
:10029E00900059F0900042E0FCA3E0FDE4121850EB
:1002AE00E4FBFAF978C312152AE4FBFA79C0784018
:1002BE00121724900072121A68900072E0FCA3E0EC
:1002CE00FDA3E0FEA3E0FF12183AC004C005C0066D
:1002DE00C007900058E0FC121855D003D002D00190
:1002EE00D00012152AC004C005C006C007AC08AD68
:1002FE0009EC121850A804A905AA06AB07D007D01E
:10030E0006D005D004121526900054121A68D39008
:10031E00002BE0941E90002AE094009000004024F0
:10032E00E0FCA3E0FDA3E0FEA3E0FF900054E0F8A4
:10033E00A3E0F9A3E0FAA3E0FB12152A9000001245
:10034E001A688007121A7400000000E4FFFE7D4850
:10035E007C44900000E0F8A3E0F9A3E0FAA3E0FBF0
:10036E001217C1600E400C900000121A744448001F
:10037E00008024E4FFFE7D487CC4900000E0F8A3DA
:10038E00E0F9A3E0FAA3E0FB1217C1500A900000B7
:10039E00121A74C44800007F0A7ED77D237C3C90DD
:1003AE000000E0F8A3E0F9A3E0FAA3E0FB12161BAD
:1003BE00C004C005C006C007E4FFFE7D707C4190FE
:1003CE000054E0F8A3E0F9A3E0FAA3E0FB12161B39
:1003DE00D003D002D001D00012152AC004C005C02F
:1003EE0006C00790003EE0F8A3E0F9A3E0FAA3E010
:1003FE00FB900054E0FCA3E0FDA3E0FEA3E0FF129F
:10040E001526E4FBFA79A0784012161BD003D00211
:10041E00D001D00012152A8F0F8E0E8D0D8C0C90E0
:10042E000054E0FCA3E0FDA3E0FEA3E0FF90003E3D
:10043E00121A68900034E0F8A3E0F9A3E0FAA3E002
:10044E00FBAF0FAE0EAD0DAC0C12152690008E123A
:10045E001A68D390002BE0941E90002AE09400902E
:10046E0000B64024E0FCA3E0FDA3E0FEA3E0FF9075
:10047E00008EE0F8A3E0F9A3E0FAA3E0FB12152A40
:10048E009000B6121A688007121A7400000000E479
:10049E00FFFE7D487C449000B6E0F8A3E0F9A3E0AF
:1004AE00FAA3E0FB1217C1600E400C9000B6121AB0
:1004BE0074444800008024E4FFFE7D487CC4900014
:1004CE00B6E0F8A3E0F9A3E0FAA3E0FB1217C150DF
:1004DE000A9000B6121A74C44800007F0A7ED77DB7
:1004EE00237C3C9000B6E0F8A3E0F9A3E0FAA3E089
:1004FE00FB12161BC004C005C006C0077FCD7ECC04
:10050E007D0C7C3F90008EE0F8A3E0F9A3E0FAA307
:10051E00E0FB12161BD003D002D001D00012152A18
:10052E00C004C005C006C007900086E0F8A3E0F93D
:10053E00A3E0FAA3E0FB90008EE0FCA3E0FDA3E0B5
:10054E00FEA3E0FF121526E4FBFA7940784012165E
:10055E001BD003D002D001D00012152A8F0F8E0EA1
:10056E008D0D8C0C90008EE0FCA3E0FDA3E0FEA3AD
:10057E00E0FF900086121A68E4FFFE7D7A7C44ABA1
:10058E000FAA0EA90DA80C1217C1600E400C750F04
:10059E0000750E00750D7A750C44E4FFFE7D7A7CB5
:1005AE00C4AB0FAA0EA90DA80C1217C1500C750FD3
:1005BE0000750E00750D7A750CC4AF0FAE0EAD0D35
:1005CE00AC0C12188990006AEEF0A3EFF0AF0FAEEC
:1005DE000EAD0DAC0C12183A12188990006CEEF09C
:1005EE00A3EFF0AF0FAE0EAD0DAC0C12188990004C
:1005FE0070EEF0A3EFF0AF0FAE0EAD0DAC0C121807
:10060E003A12188990006EEEF0A3EFF090007EE0A3
:10061E00FCA3E0FDE4121850E4FBFAF978C31215BE
:10062E002AE4FBFA79C07840121724900076121A49
:10063E0068900076E0FCA3E0FDA3E0FEA3E0FF12CD
:10064E00183AC004C005C006C00790005FE0FC1257
:10065E001855A804A905AA06AB07D007D006D005E1
:10066E00D004121526C004C005C006C007AC0AADE2
:10067E000BEC121850A804A905AA06AB07D007D098
:10068E0006D005D00412152690005B121A68D3907E
:10069E00002BE0941E90002AE09400900004402469
:1006AE00E0FCA3E0FDA3E0FEA3E0FF90005BE0F81A
:1006BE00A3E0F9A3E0FAA3E0FB12152A90000412BE
:1006CE001A688007121A7400000000E4FFFE7D48CD
:1006DE007C44900004E0F8A3E0F9A3E0FAA3E0FB69
:1006EE001217C1600E400C900004121A7444480098
:1006FE00008024E4FFFE7D487CC4900004E0F8A353
:10070E00E0F9A3E0FAA3E0FB1217C1500A9000042F
:10071E00121A74C44800007F0A7ED77D237C3C9059
:10072E000004E0F8A3E0F9A3E0FAA3E0FB12161B25
:10073E00C004C005C006C007E4FFFE7D707C41907A
:10074E00005BE0F8A3E0F9A3E0FAA3E0FB12161BAE
:10075E00D003D002D001D00012152AC004C005C0AB
:10076E0006C007900044E0F8A3E0F9A3E0FAA3E086
:10077E00FB90005BE0FCA3E0FDA3E0FEA3E0FF1214
:10078E001526E4FBFA79A0784012161BD003D0028E
:10079E00D001D00012152A8F0F8E0E8D0D8C0C905D
:1007AE00005BE0FCA3E0FDA3E0FEA3E0FF900044AD
:1007BE00121A68900030E0F8A3E0F9A3E0FAA3E083
:1007CE00FBAF0FAE0EAD0DAC0C12152690008A12BB
:1007DE001A68D390002BE0941E90002AE0940090AB
:1007EE0000BE4024E0FCA3E0FDA3E0FEA3E0FF90EA
:1007FE00008AE0F8A3E0F9A3E0FAA3E0FB12152AC1
:10080E009000BE121A688007121A7400000000E4ED
:10081E00FFFE7D487C449000BEE0F8A3E0F9A3E023
:10082E00FAA3E0FB1217C1600E400C9000BE121A24
:10083E0074444800008024E4FFFE7D487CC4900090
:10084E00BEE0F8A3E0F9A3E0FAA3E0FB1217C15053
:10085E000A9000BE121A74C44800007F0A7ED77D2B
:10086E00237C3C9000BEE0F8A3E0F9A3E0FAA3E0FD
:10087E00FB12161BC004C005C006C0077FCD7ECC80
:10088E007D0C7C3F90008AE0F8A3E0F9A3E0FAA388
:10089E00E0FB12161BD003D002D001D00012152A95
:1008AE00C004C005C006C007900082E0F8A3E0F9BE
:1008BE00A3E0FAA3E0FB90008AE0FCA3E0FDA3E036
:1008CE00FEA3E0FF121526E4FBFA794078401216DB
:1008DE001BD003D002D001D00012152A8F0F8E0E1E
:1008EE008D0D8C0C90008AE0FCA3E0FDA3E0FEA32E
:1008FE00E0FF900082121A68E4FFFE7D7A7C44AB22
:10090E000FAA0EA90DA80C1217C1600E400C750F80
:10091E0000750E00750D7A750C44E4FFFE7D7A7C31
:10092E00C4AB0FAA0EA90DA80C1217C1500C750F4F
:10093E0000750E00750D7A750CC490006AE0FCA36C
:10094E00E0FDEC121850AB0FAA0EA90DA80C121553
:10095E002A12188990006AEEF0A3EFF0A3E0FCA330
:10096E00E0FDEC121850AB0FAA0EA90DA80C121533
:10097E002A12188990006CEEF0A3EFF0900070E050
:10098E00FCA3E0FDEC121850AB0FAA0EA90DA80C9B
:10099E00121526121889900070EEF0A3EFF0900059
:1009AE006EE0FCA3E0FDEC121850AB0FAA0EA90DE1
:1009BE00A80C12152612188990006EEEF0A3EFF017
:1009CE009000B0E0FCA3E0FDE4121850E4FBFAF94D
:1009DE0078C312152AE4FBFA79C0783F12161B90E1
:1009EE00007A121A68900062E0FC12185590007A94
:1009FE00E0F8A3E0F9A3E0FAA3E0FB12152A9000B9
:100A0E0038E0F8A3E0F9A3E0FAA3E0FB12152612F2
:100A1E001889900060EEF0A3EFF0D390002BE094D5
:100A2E001E90002AE094009000084032E0F8A3E007
:100A3E00F9A3E0FAA3E0FBC000C001C002C003901E
:100A4E000060E0FCA3E0FDEC121850D003D002D001
:100A5E0001D00012152A900008121A688007121A87
:100A6E007400000000E4FFFE7D487C44900008E026
:100A7E00F8A3E0F9A3E0FAA3E0FB1217C1600E4061
:100A8E000C900008121A74444800008024E4FFFE03
:100A9E007D487CC4900008E0F8A3E0F9A3E0FAA337
:100AAE00E0FB1217C1500A900008121A74C44800D5
:100ABE0000900060E0FCA3E0FDEC121850E4FBFA9D
:100ACE007940784012161BC004C005C006C0077FCF
:100ADE00CD7ECC7D4C7C3E900008E0F8A3E0F9A3DF
:100AEE00E0FAA3E0FB12161BD003D002D001D00017
:100AFE0012152AC004C005C006C007900060E0FCB5
:100B0E00A3E0FDEC12185090000EE0F8A3E0F9A35C
:100B1E00E0FAA3E0FB121526D003D002D001D000DC
:100B2E0012152A8F0F8E0E8D0D8C0C900060E0FC2E
:100B3E00A3E0FDEC12185090000E121A6890006A95
:100B4E00E0FCA3E0FDEC121850AB0FAA0EA90DA805
:100B5E000C12152A12188990006AEEF0A3EFF0A37A
:100B6E00E0FCA3E0FDEC121850AB0FAA0EA90DA8E5
:100B7E000C12152612188990006CEEF0A3EFF0906F
:100B8E000070E0FCA3E0FDEC121850AB0FAA0EA90A
:100B9E000DA80C121526121889900070EEF0A3EF16
:100BAE00F090006EE0FCA3E0FDEC121850AB0FAA23
:100BBE000EA90DA80C12152A12188990006EEEF0CF
:100BCE00A3EFF090006CE0FEA3E0FF90002AE0FCA3
:100BDE00A3E0FD2FFFEC3EFE900022F0A3EFF0D33A
:100BEE0094E8EE64809483400C9000227403F0A38A
:100BFE0074E8F0800FC3900022E06480948050046B
:100C0E00E4F0A3F090006EE0FEA3E02DFFEC3EFEBC
:100C1E00900028F0A3EFF0D394E8EE648094834024
:100C2E000C9000287403F0A374E8F0800FC39000BA
:100C3E0028E0648094805004E4F0A3F090006AE011
:100C4E00FEA3E0FF90002AE0FCA3E0FD2FFFEC3EA8
:100C5E00FEA3F0A3EFF0D394E8EE64809483400CEF
:100C6E0090002C7403F0A374E8F0800FC390002C56
:100C7E00E0648094805004E4F0A3F0900070E0FEF5
:100C8E00A3E02DFFEC3EFE90002EF0A3EFF0D394E8
:100C9E00E8EE64809483400C90002E7403F0A374ED
:100CAE00E8F0800FC390002EE0648094805004E43E
:100CBE00F0A3F0900081E064017060C390002BE01F
:100CCE00941E90002AE094004051900022E0FEA372
:100CDE00E0FF74E89FFF74039EFEC006C0079000FD
:100CEE0028E0FEA3E0FFC374E89FFD74039EFC9012
:100CFE00002CE0FEA3E0FFC374E89FFB74039EFA92
:100D0E00A3E0FEA3E0FFC374E89F9000F2F074032B
:100D1E009E9000F1F0D007D00680139000F174037E
:100D2E00F0A374E8F0FB7A03FD7C03FF7E0312222E
:100D3E00A8D007D006D005D004D003D002D001D061
:0C0D4E0000D0D0D082D083D0F0D0E032B2
:042392007F0A7E0040
:10239600E4FDFCC3ED9FEC9E5015E4FBFA0BBB007D
:0F23A600010AEB64FA4A70F50DBD00010C80E4EA
:0123B5002205
:10243600C28C538E7F5389F075A882758A1C758C61
:06244600A8C28DD28C2219
:101AA500121FB41223921223961223B612239212F6
:101AB50021D87B017A007994122185122392122470
:101AC500367F64122396E4900092F0A3F09000B064
:101AD500F0A37480F0900042E4F0A37480F09000CD
:101AE5007EE4F0A37480F0D2AF9000F17403F0A30C
:101AF50074E8F0FB7A03FD7C03FF7E031222A87BCA
:101B0500017A0079A01222E27F017E001223967BE2
:101B1500017A0079941221857F017E001223969027
:101B25000094E0FF900065F0900095E0900081F052
:101B3500900059E0FEEF6E6019900096E075F0FF99
:101B4500A4FFA3E07C002FFEEC35F0900092F0A3FB
:101B5500CEF0900098E0FF9000B0E4F0A3EFF09095
:101B65000099E0FF900042E4F0A3EFF090009AE0C6
:101B7500FF90007EE4F0A3EFF090009CE0248090BD
:101B85000058F090009DE0248090005FF090009E4A
:101B9500E02480900062F090000DE004F070069063
:101BA500000CE004F0900081E064017064D39000C3
:101BB5000DE0945890000CE094024004E4F0A3F08A
:101BC500D390000DE0949690000CE09400400AC27A
:101BD500B2C2B3C2CCC2908008D2B2D2B3D2CCD2F8
:101BE500909000EAE064016003021B049000F17428
:101BF50002F0A37458F0FB7A02FD7C02FF7E02120C
:101C050022A87FE87E03122396E49000EAF0021BE7
:101C15000490000CE0FEA3E0FFC39432EE94005064
:101C2500119000EA7401F0D2B2D2B3C2CCD29002C4
:101C35001B04C3EF9464EE9400500BD2B2D2B3D21E
:101C4500CCC290021B04C3EF9496EE94005006D2CA
:101C5500B2C2B3800DC3EF94C8EE9400500BC2B26C
:101C6500D2B3D2CCD290021B04E490000CF0A3F0C6
:031C7500021B044B
:101523000218F5E86480F8E933E83360110460F0E9
:10153300ED33EC337009E8FCE9FDEAFEEBFF22042E
:1015430060DED3EB9FEA9EE99DE8C2E78CF0C2F729
:1015530095F0400CE8CCF8E9CDF9EACEFAEBCFFBF5
:101563001218C085D0F05804700320D5B3E8047076
:10157300075002B2D50218FF92D5EC0460F7E4CC11
:10158300C0E0C398F8603B94186008400DD0E0FBBE
:101593000218D7E4FBFAC9FC8028E830E406E4C962
:1015A300FBE4CAFCE830E305E4C9CACBFCE8540712
:1015B3006010F8C3E913F9EA13FAEB13FBEC13FC1D
:1015C300D8F130F52FC3E49CFCEF9BFFEE9AFEEDC0
:1015D30099FDD0E0FBEF4E4D4C701222DB03021855
:1015E300FCEC2CFCEF33FFEE33FEED33FDED30E787
:1015F300EB0218D7EF2BFFEE3AFEED39FDD0E0FBFF
:1016030050130BBB00030218FFED13FDEE13FEEFA7
:0816130013FFEC13FC0218D7D1
:10161B00EC4D6011E8497017ED33EC3304600DE4C9
:10162B00FCFFFEFD22E933E8330470F80218F512D3
:10163B0018C058046009E4CC2481500628500902D4
:10164B0018FF2840030218FCC0E0EB4A7044B98035
:10165B0006D0E0FB0218EBEF4E701CBD8008EBFFD1
:10166B00EAFEE9FD80EBE98DF0A4FEE5F00217043C
:10167B00E9CDF9EAFEEBFFEF89F0A4FCE5F0CE89AA
:10168B00F0A42EFFE435F0CD89F0A42DFEE435F067
:10169B008067EF4E7005BD80D780C3EF8BF0A4AC95
:1016AB00F0EE8BF0A42CFCE435F0F8EF8AF0A42CD0
:1016BB00E5F038FCE433CB8DF0A42CFCE5F03BF8E3
:1016CB00EE8AF0A42CFCE5F038F8E433CF89F0A4D3
:1016DB002CFCE5F038CF3400CE89F0A42FFFE5F0D9
:1016EB003EFEE433C98DF0A42EFEE5F039CD8AF031
:1016FB00A42FFFE5F03EFEE43DFD33D0E0FB5007A9
:10170B000BBB000F0218FFEC2CFCEF33FFEE33FE8C
:06171B00ED33FD0218D7BA
:101721000218FFEC5D046005E8590470030218F526
:101731001218C0580460F6EC4860F2EC7004FDFE2B
:10174100FF22C860DB2481C85009C398600250069B
:101751000218FC9850CAF582E9294B4A7005AB8200
:101761000218EB75F0007C1A7880C3EF9BEE9AEDBE
:1017710099400DC3EF9BFFEE9AFEED99FDE842F013
:10178100DC23ACF0D0E0FFD0E0FED0E0FDAB822066
:10179100E7101BEB60BAEC2CFCEF33FFEE33FEEDF0
:1017A10033FD0218D7E803F830E705C0F075F00003
:1017B100EF2FFFEE33FEED33FD40B830E7C280AAD4
:1017C10074F8CC6480CCC86480C8F58204604FC3CF
:1017D100EB9FF5F0EA9E42F0E99D42F0E89C45F06E
:1017E100603C501DE5825FFFE582D313CB5BCBF4F8
:1017F1002B5582FB50280ABA002409B90020088021
:101801001DE5825BFBE582D313CF5FCFF4C3132FBA
:101811005582FF50090EBE00050DBD00010CC3EB42
:101821009FF5F0EA9E42F0E99D42F0E89C45F060A8
:0918310007CC4820E701B3EC22CA
:10183A00ED33EC33600A047003BD8004ECB2E7FCBC
:01184A00227B
:10184B0075F020800E75F010800575F0087D007E18
:10185B00007F003392D530D5031219FDEC334010C5
:10186B00EF33FFEE33FEED33FDEC33FCD5F0ED2221
:0E187B00E5F0247EA2D513CC92E7CDCEFF225D
:10188900EDD2E7CD33EC3392D524814006E4FFFE57
:10189900FDFC22FCE4CFCECDCC24E0501174FF80B6
:1018A900EDC3CC13CCCD13CDCE13CECF13CF047053
:0718B900F030D5DE0219FD3D
:101F08000218F522EDA2E7D2E7F9EC3340F260F3CC
:101F1800B4FF08ED547F70E80218FFF82481C2E08E
:101F2800C0E0F40428FAC313FCED92E7FD9000DE4C
:101F3800121A68EEA2E7E9BA7F02C31334009400CC
:101F4800FA75F091A4E5F013F494FE8AF0A433E551
:101F5800F033248CD313FDE492E7FE7F007C3F75B9
:101F68008302ECC0E0F8EDC0E0F9EEC0E0FAEFC0A3
:101F7800E0FB8583F09000DE121A1785F0831217B4
:101F880024D0E0FBD0E0FAD0E0F9D0E0F812152A2E
:101F9800ED6480FD30E7011CD583C7ED33CC33F801
:0C1FA800D0E0A2E71328C313CC13FD22E5
:10205C009000DE121A689000E2E0F8A3E0F9A3E029
:10206C00FAA3E0FB9000DEE0FCA3E0FDA3E0FEA3FE
:10207C00E0FF121724121E069000DE121A68900060
:10208C00E2E030E7599000DEE0FCA3E0FDA3E0FEC7
:10209C00A3E0FFECC0E0EDC0E0EEC0E0EFC0E0E498
:1020AC00FFFEFDFC9000DEE0F8A3E0F9A3E0FAA34C
:1020BC00E0FB1217C17BDB600250087A0F7949787C
:1020CC004080067A0F794978C0D0E0FFD0E0FED08E
:1020DC00E0FDD0E0FC12152A9000DE121A68900088
:0D20EC00DEE0FCA3E0FDA3E0FEA3E0FF2288
:10226D00ECC0E0F8EDC0E0F9EEC0E0FAEFC0E0FB45
:10227D0012161BEC6480FC7B007A007980783F128B
:10228D00152A121F0CD0E0CFFBD0E0CEFAD0E0CD56
:0B229D00F9D0E0CCF8121724021E0656
:1018C000E9D2E7C933E833F892D5EDD2E7CD33EC6E
:0718D00033FC5002B2D522E7
:1018D700EC30E7100FBF000C0EBE00080DBD000472
:1018E7000BEB6014A2D5EB13FCED92E7FD2274FF1E
:1018F700FCFDFEFF22E480F8A2D574FF13FC7D8077
:03190700E480EF8A
:101DE600BE1249253E4CCCCDBEAAAAAB3F80000010
:101DF6003E7ADBB03EED63383F24BC7D3F490FDBC6
:101E0600ED33ECC2E7CC339208B4FF13ED547F6098
:101E1600030218F57FDB7E0F7DC97C3F021EFBC2E5
:101E260009C3947F401E7007EDD2E794904015EFEA
:101E3600FBEEFAEDF9ECF87F007E007D807C3F1228
:101E46001724D209ED33EC33248430E705E4C0E0EF
:101E5600806B04FAEDD2E754F0C333DAFD5407344D
:101E6600002323C0E0CCC0E0F8EDC0E0F9EEC0E00E
:101E7600FAEFC0E0FBE4121855EC24FEFC9000E6F5
:101E8600121A6812161B7B007A007980783F1215A9
:101E96002A9000E6E0B2E7CCF0A3E0CDF0A3E0CED6
:101EA600F0A3E0CFF0D0E0FBD0E0FAD0E0F9D0E04C
:101EB600F812152A9000E6121A401217249000E62E
:101EC600121A68901DE6740312190A9000E6121A97
:101ED6004012161BD0E0600F24F2F582E4341DF5A3
:101EE60083121A4C12152A30090B7BDB7A0F79C93B
:101EF60078BF12152AED33EC336006ECA20892E7A0
:021F0600FC22BB
:10190A00C0E0EFFBEEFAEDF9ECF812161BD0E0F5A9
:10191A00F0EFFBEEFAEDF9ECF8121A23A3A3A3A356
:10192A00E8C0E0E9C0E0EAC0E0EBC0E0C0F01216AF
:10193A001B121A4CA3A3A3A312152AD0F0D0E0FBC2
:0D194A00D0E0FAD0E0F9D0E0F8D5F0D422DA
:030000000220F9E2
:0C20F900787FE4F6D8FD75815902214083
:10195700BB010689828A83E0225002E722BBFE028E
:09196700E32289828A83E49322C1
:10197000F8BB010DE58229F582E5833AF583E8F0AD
:10198000225006E92582C8F622BBFE05E92582C859
:02199000F22241
:10199200BC000BBE0029EF8DF084FFADF022E4CC39
:1019A200F875F008EF2FFFEE33FEEC33FCEE9DEC02
:1019B200984005FCEE9DFE0FD5F0E9E4CEFD22ED48
:1019C200F8F5F0EE8420D21CFEADF075F008EF2F92
:1019D200FFED33FD4007985006D5F0F222C398FD83
:0519E2000FD5F0EA2220
:1019E700A3F8E0C5F025F0F0E582158270021583B3
:0619F700E0C838F0E82210
:0E19FD00C3E49FFFE49EFEE49DFDE49CFC22FB
:0C1A0B00E6FC08E6FD08E6FE08E6FF2207
:0C1A1700E0FCA3E0FDA3E0FEA3E0FF2242
:101A2300E493FC740193FD740293FE740393FF2209
:0D1A3300E6FB08E6F908E6FA08E6CBF82223
:0C1A4000E0F8A3E0F9A3E0FAA3E0FB2229
:101A4C00E493F8740193F9740293FA740393FB22F0
:0C1A5C00ECF608EDF608EEF608EFF622B6
:0C1A6800ECF0A3EDF0A3EEF0A3EFF022F1
:101A7400A8828583F0D083D082121A8B121A8B121B
:101A84001A8B121A8BE473E493A3C583C5F0C58340
:101A9400C8C582C8F0A3C583C5F0C583C8C582C8BC
:011AA400221F
:10210500021AA5E493A3F8E493A34003F68001F231
:1021150008DFF48029E493A3F85407240CC8C333DB
:10212500C4540F4420C8834004F456800146F6DFAA
:10213500E4800B0102040810204080901C78E47EA6
:10214500019360BCA3FF543F30E509541FFEE4939F
:10215500A360010ECF54C025E060A840B8E493A366
:10216500FAE493A3F8E493A3C8C582C8CAC583CA91
:10217500F0A3C8C582C8CAC583CADFE9DEE780BE49
:011DE50000FD
:00000001FF
