:100454000E0EC0F9A4B0999282F88090BFFFC68CAA
:06046400010900010A007D
:1001100012040B75200B751D0B750D0B751F0B75E0
:10012000210B751C0B751E0B750C0B1204907FCCEC
:1001300012032D7F4412032D75221475231EC288CD
:10014000D2A8D2AF1202468F0B12042412008F12D3
:1001500002D712047AAF0A1201D9AF207E00AD1D7A
:100160007C00120354AF0D7E00AD1F7C001203799A
:10017000AF217E00AD1C7C0012039EAF1E7E00AD41
:0D0180000C7C001203C3AF081203E880B727
:10018D0075200C751D0B750D0B751F0B75210B75E2
:10019D001C0BE50B75F00A84F51EE50B75F00A8452
:1001AD0085F00CE50964017022E52375F00A84F5EC
:1001BD001FE52375F00A8485F021E52275F00A8488
:0C01CD00F51EE52275F00A8485F00C2276
:1002A80075200D751D0B750D0BE52375F00A84F58A
:1002B8001FE52375F00A8485F021751C0BE522756E
:0F02C800F00A84F51EE52275F00A8485F00C22F9
:0B047A00E509700302018D1202A822A8
:1001D900EFFD7C0064017012E52275F00A84F51EBA
:1001E900E52275F00A8485F00C22ED4C701BE5239D
:1001F90075F00A84F51FE52375F00A8485F021E579
:0A020900097006751F0B75210B220A
:0A049000C294120485D29402048580
:02032D008F251A
:10032F00E4F526C3E5269408748094805016C29491
:10033F00E5251392941204A4D294E525C313F52551
:04034F00052680DF20
:010353002287
:10030500E4F525C3E5259408748094805017C294BC
:10031500E526C313F526D2943094034326801204B0
:07032500A4052580DEAF26D0
:01032C0022AE
:100246001204907FCC12032D7F4412032D120485D5
:100256001204907FCC12032D7FBE12032D120305CC
:100266008F24120305EFC454F0FFE524C4540F4253
:010276000780
:010277002264
:1002D70075A0807580FFE523D395224019C280E57C
:1002E7000BD395235017C281D280E50BC3952250BB
:0E02F7000CC282D28122C283D28075090122FC
:10008F0020B3127F057E0012022120B3036309FF04
:10009F0020B36D80FB20B2127F057E00120221205B
:1000AF00B203630AFF20B25880FB20B12B7F057E7D
:1000BF000012022120B11CE50A700D0523E523640F
:1000CF0064701075231E800B0522E5226464700393
:1000DF0075221420B12A80FB20B0257F057E0012E7
:1000EF00022120B018E50A700B1523E523700E7559
:1000FF00231E80091522E522700375221430B0FDEE
:01010F0022CD
:100424007508CBE50BD39523500D750896E50BC3E2
:080434009522500375086422B3
:0F046B00D2A1D2A01204AEC2A11204AEC2A0222E
:0A049A00C2A1D2A01204AED2A1222A
:020278008F25D0
:10027A00E4F526C3E526940874809480501FE5258A
:10028A0030E704D2A18002C2A11204AED2A0E525B1
:0D029A0025E0F5251204AEC2A0052680D691
:0102A7002234
:10043C00D2A11204AED2A01204AE30A107C2A012F7
:08044C00049AC322C2A0D322CE
:1003E8008F2412046B7F9012027812043C7F401213
:1003F800027812043CAF2412027812043C12049AC8
:030408007F01224F
:100354008C248D2575A0C075800112021375A0C070
:1003640075800275A0E0740E2525F8E6F5807F01FE
:050374007E00020221E1
:100379008C248D2575A0C075800412021375A0C048
:1003890075800875A0E0740E2525F8E6F5807F01D3
:050399007E00020221BC
:10039E008C248D2575A0C075801012021375A0C017
:1003AE0075802075A0E0740E2525F8E6F5807F0196
:0503BE007E0002022197
:1003C3008C248D2575A0C075804012021375A0C0C2
:1003D30075808075A0E0740E2525F8E6F5807F0111
:0503E3007E0002022172
:10040B0075A0A0E4F58075A0C07580FF75A0E075A0
:09041B0080FF75A0807580FF22AE
:0404AE007F0EDFFEE0
:0104B2002227
:0904A400007F017ED9DEFEDFFCC1
:0104AD00222C
:0A04850000007F067E5DDEFEDFFC56
:01048F00224A
:0E02130075A0E0740E2FF8E6F5807F017E00E6
:10022100E4FDFCC3ED9FEE6480F8EC64809850140B
:100231007B4D7A03EB1B70011AEB4A70F70DBD0081
:04024100010C80DF4D
:010245002296
:03000000020003F8
:0C000300787FE4F6D8FD75812602004AE3
:10000F00020110E493A3F8E493A34003F68001F2F6
:10001F0008DFF48029E493A3F85407240CC8C333F2
:10002F00C4540F4420C8834004F456800146F6DFC1
:10003F00E4800B0102040810204080900454E47EF9
:10004F00019360BCA3FF543F30E509541FFEE493B6
:10005F00A360010ECF54C025E060A840B8E493A37D
:10006F00FAE493A3F8E493A3C8C582C8CAC583CAA8
:10007F00F0A3C8C582C8CAC583CADFE9DEE780BE60
:01046A000091
:00000001FF
