:100104001009C0F9A4B0999282F880908880C6C082
:02011400868ED5
:10008F0075A0A0E4F58075A0807580FF75A0C07580
:10009F00800175A0FF7580FF1200F0E50864017004
:1000AF00F774092519F8E6F5807FE87E031200CB77
:0C00BF000519E519641070E0F51980DCEB
:1000F00020B3107F057E001200CB20B303750801EA
:0401000030B3FD22F9
:1000CB00E4FDFCC3ED9FEE6480F8EC648098501463
:1000DB007B4D7A03EB1B70011AEB4A70F70DBD00D9
:0400EB00010C80DFA5
:0100EF0022EE
:03000000020003F8
:0C000300787FE4F6D8FD75811902004AF0
:10000F0002008FE493A3F8E493A34003F68001F278
:10001F0008DFF48029E493A3F85407240CC8C333F2
:10002F00C4540F4420C8834004F456800146F6DFC1
:10003F00E4800B0102040810204080900104E47E4C
:10004F00019360BCA3FF543F30E509541FFEE493B6
:10005F00A360010ECF54C025E060A840B8E493A37D
:10006F00FAE493A3F8E493A3C8C582C8CAC583CAA8
:10007F00F0A3C8C582C8CAC583CADFE9DEE780BE60
:0101160000E8
:00000001FF
