:030000000200EC0F
:0C00EC00787FE4F6D8FD758166020133D0
:1002D400183300C000F900A400B000990092008215
:1002E40000F80080009000BF00FF0E210032003BA8
:0A02F40000170010000A00020013BA
:100003001203DB1202A5E4F553F554F54D754E08C2
:10001300F53175320AF551755205F565756609F5C1
:100023004B754C0AF54F755005F52FF530120274D8
:10003300AE5BAF5C7C007D0A1201788E538F54AEA9
:100043005BAF5C7C007D0A1201788C4D8D4E75315F
:100053000075320AAE59AF5A7C007D0A1201788EC0
:10006300518F52AE59AF5A7C007D0A1201788C65CC
:100073008D66754B00754C0A754F0075500B752FC7
:100083000075300B0556E5567002055564644555F9
:100093007028F555F556AE57AF58FC7D0A12017816
:1000A3008E4F8F50AE57AF587C007D0A1201788C6B
:1000B3002F8D307F057E0012024FAD4EAC4DAF54F5
:1000C300AE531202FFAD52AC51AF32AE3112032721
:1000D300AD4CAC4BAF66AE6512034FAD30AC2FAF3A
:0900E30050AE4F12037702003009
:1003BF00E4FEEEC3940874809480500FC297EF133D
:0B03CF0092A3EFC313FFD2970E80E74C
:0103DA002200
:10039F00C29300C29700D2931203BFED75F00A8487
:1003AF00C454F0FFED75F00A84E5F04FFF0203BF70
:10020300C29300C29700D2931203BFE4FFEFC394DB
:1002130008748094805011C297EDC313FD30A3037B
:10022300430580D2970F80E5C2A3EDC4540FFFEDC1
:0A023300540FFEEF75F00AA42EFF31
:01023D00229E
:1002A5007C80E4FD7F8E12039FE4FBEBC39407740F
:1002B5008094805013EB25E02421F808E6FDAF0477
:0F02C50012039F0C0C0B80E37D807F8E02039F42
:100274007C81E4FD7F8E12039FE4FBEBC39407743F
:100284008094805015AF04120203EB25E02457F844
:10029400760008A6070C0C0B80E17D807F8E02039C
:0102A4009FBA
:1002FF008C088D0975A0C075800112023E75A0C0D3
:10030F0075800275A0E0E50925E02433F808E6F5CD
:08031F00807F017E0002024F05
:100327008C088D0975A0C075800412023E75A0C0A7
:1003370075800875A0E0E50925E02433F808E6F59F
:08034700807F017E0002024FDD
:10034F008C088D0975A0C075801012023E75A0C073
:10035F0075802075A0E0E50925E02433F808E6F55F
:08036F00807F017E0002024FB5
:100377008C088D0975A0C075804012023E75A0C01B
:1003870075808075A0E0E50925E02433F808E6F5D7
:08039700807F017E0002024F8D
:1003DB0075A0A0E4F58075A0C07580FF75A0E075D1
:0903EB0080FF75A0807580FF22DF
:10023E0075A0E0EF25E02433F808E6F5807F017E17
:01024E0000AF
:10024F00E4FDFCC3ED9FEE6480F8EC6480985014DD
:10025F007B4D7A03EB1B70011AEB4A70F70DBD0053
:04026F00010C80DF1F
:010273002268
:1000F800020003E493A3F8E493A34003F68001F21B
:1001080008DFF48029E493A3F85407240CC8C33308
:10011800C4540F4420C8834004F456800146F6DFD7
:10012800E4800B01020408102040809002D4E47E91
:10013800019360BCA3FF543F30E509541FFEE493CC
:10014800A360010ECF54C025E060A840B8E493A393
:10015800FAE493A3F8E493A3C8C582C8CAC583CABE
:10016800F0A3C8C582C8CAC583CADFE9DEE780BE76
:0102FE0000FF
:10017800C2D5EC30E709B2D5E4C39DFDE49CFCEEA2
:1001880030E715B2D5E4C39FFFE49EFE1201AEC36B
:10019800E49DFDE49CFC80031201AE30D507C3E466
:0601A8009FFFE49EFE2211
:1001AE00BC000BBE0029EF8DF084FFADF022E4CC35
:1001BE00F875F008EF2FFFEE33FEEC33FCEE9DECFE
:1001CE00984005FCEE9DFE0FD5F0E9E4CEFD22ED44
:1001DE00F8F5F0EE8420D21CFEADF075F008EF2F8E
:1001EE00FFED33FD4007985006D5F0F222C398FD7F
:0501FE000FD5F0EA221C
:00000001FF
