:0E02AE000C0BC0F9A4B0999282F88090BFFFAB
:10008F0012026E751C0B75190B750A0B751B0B7510
:10009F001D0B75170B751A0B75090B7F011201617B
:1000AF008F08E50875F06484F51CE50875F0648425
:1000BF00E5F075F00A84F519E50875F00A8485F006
:1000CF000AAF1C7E00AD197C001201BAAF0A7E0088
:1000DF00AD1B7C001201DFAF1D7E00AD177C00123F
:0F00EF000204AF1A7E00AD097C0012022980AC1A
:0F029F00D2A1D2A01202C7C2A11202C7C2A022CE
:0A02BD00C2A1D2A01202C7D2A122F2
:020131008F201D
:10013300E4F521C3E521940874809480501FE520E1
:1001430030E704D2A18002C2A11202C7D2A0E520E7
:0D01530025E0F5201202C7C2A0052180D6CC
:01016000227C
:10028700D2A11202C7D2A01202C730A107C2A01280
:0802970002BDC322C2A0D32264
:10018F00E4F520C3E520940874809480501AD2A01F
:10019F001202C7E52125E0F52130A103432101C259
:0A01AF00A01202C7052080DBAF217B
:0101B9002223
:020161008F1EEF
:1001630012029F7F90120131120287AF1E120131DA
:100173001202871202BD12029F7F911201311202F5
:0B0183008712018F8F1F1202BDAF1FFB
:01018E00224E
:10024E008F2212029F7F901201311202877F40127D
:10025E000131120287AF221201311202870202BD52
:1001BA008C1E8D1F75A0C07580011200FE75A0C02F
:1001CA0075800275A0E0740B251FF8E6F5807F01A3
:0501DA007E0002010C93
:1001DF008C1E8D1F75A0C07580041200FE75A0C007
:1001EF0075800875A0E0740B251FF8E6F5807F0178
:0501FF007E0002010C6E
:100204008C1E8D1F75A0C07580101200FE75A0C0D5
:1002140075802075A0E0740B251FF8E6F5807F013A
:050224007E0002010C48
:100229008C1E8D1F75A0C07580401200FE75A0C080
:1002390075808075A0E0740B251FF8E6F5807F01B5
:050249007E0002010C23
:10026E0075A0A0E4F58075A0C07580FF75A0E0753F
:09027E0080FF75A0807580FF224D
:0E00FE0075A0E0740B2FF8E6F5807F017E0000
:10010C00E4FDFCC3ED9FEE6480F8EC648098501421
:10011C007B4D7A03EB1B70011AEB4A70F70DBD0097
:04012C00010C80DF63
:0101300022AC
:0402C7007F0EDFFEC9
:0102CB002210
:03000000020003F8
:0C000300787FE4F6D8FD75812202004AE7
:10000F0002008FE493A3F8E493A34003F68001F278
:10001F0008DFF48029E493A3F85407240CC8C333F2
:10002F00C4540F4420C8834004F456800146F6DFC1
:10003F00E4800B01020408102040809002AEE47EA1
:10004F00019360BCA3FF543F30E509541FFEE493B6
:10005F00A360010ECF54C025E060A840B8E493A37D
:10006F00FAE493A3F8E493A3C8C582C8CAC583CAA8
:10007F00F0A3C8C582C8CAC583CADFE9DEE780BE60
:0102BC000041
:00000001FF
