:1003DB00C0F9A4B0999282F880908883C6A1868ECA
:1003B5000809FFFFFFFFFFFFFFFF0111000112000A
:0503C500C10001080069
:1003CB00D291538EBF53890F438910C28EC2AB2279
:10034A00E4F58DF58BD28E30910CAF8DC3EF9446C8
:10035A007480948040F1C28EAF8DEFFEAD8B7C002D
:07036A00E42DFFEC3EFE2232
:10037100E4F58DF58BD28E20910CAF8DC3EF9446B1
:100381007480948040F1C28EAF8DEFFEAD8B7C0006
:07039100E42DFFEC3EFE220B
:10013E00120371C3EF9434EE942150030201DBD30A
:10014E00EF941CEE942540030201DB12034AC3EF29
:10015E0094A0EE940F4076D3EF9488EE9413506DE6
:10016E00E4FBEBC3940474809480505FE4FAEAC31A
:10017E00940874809480504A120371C3EF9454EE25
:10018E0094014049D3EF940CEE9403504012034A6D
:10019E00D3EF9454EE9401400EEF940CEE94035072
:1001AE0006E9C313F98018D3EF94B4EE9405401DFD
:1001BE00EF946CEE94075015E9C313F94301800ACE
:0D01CE0080AC74132BF8A6010B8097D200B3
:0101DB002201
:0F03EB00E5A0541F44A0F5A05380AF53A01F22DC
:10026800751A0075191075180E751700E4FCFDABAA
:100278001AAA19A918A81712000EE47BE87A03F93C
:10028800F81200998F1A8E198D188C17C3E4951AD5
:10029800F51AE49519F51974019518F518E49517E8
:1002A800F517AF1AAE19AD18FC780812012B8F118B
:1002B800851A125389F043890185118C85128AD2D7
:0302C800A9D28C2C
:0102CB002210
:1002CC00E5A0541F44E0F5A07580FF53A01FE5A0E6
:1002DC00541F44C0F5A0AF08A8077480088002C35F
:1002EC0013D8FCF58053A01FE5A0541F44E0F5A0E3
:1002FC0074092508F8E6F58053A01F050853080774
:01030C0022CE
:03000B0002039855
:10039800C0E0C0D075D000C000C00785118C8512A0
:0D03A8008A1202CCD007D000D0D0D0E032B5
:10030D00D2AF1203EB7F017E001202681203CB20E5
:10031D00910312013E3000F7C200E513C4540F9053
:10032D0003DB93F50EE513540F93F50DE515C4544A
:0D033D000F93F50AE515540F93F50980D2D2
:030000000201DC1E
:0C01DC00787FE4F6D8FD75812002022334
:10000E00E88FF0A4CC8BF0A42CFCE98EF0A42CFC91
:10001E008AF0EDA42CFCEA8EF0A4CDA8F08BF0A40F
:10002E002DCC3825F0FDE98FF0A42CCD35F0FCEB6E
:10003E008EF0A4FEA9F0EB8FF0A4CFC5F02ECD3933
:0F004E00FEE43CFCEAA42DCE35F0FDE43CFC22A0
:10005D0075F008758200EF2FFFEE33FECD33CDCC5A
:10006D0033CCC58233C5829BED9AEC99E5829840DD
:10007D000CF582EE9BFEED9AFDEC99FC0FD5F0D6BA
:10008D00E4CEFBE4CDFAE4CCF9A88222B800C1B9E4
:10009D000059BA002DEC8BF084CFCECDFCE5F0CB22
:1000AD00F97818EF2FFFEE33FEED33FDEC33FCEB5B
:1000BD0033FB10D703994004EB99FB0FD8E5E4F916
:1000CD00FA227818EF2FFFEE33FEED33FDEC33FC03
:1000DD00C933C910D7059BE99A4007EC9BFCE99AF7
:1000ED00F90FD8E0E4C9FAE4CCFB2275F010EF2F3C
:1000FD00FFEE33FEED33FDCC33CCC833C810D7073C
:10010D009BEC9AE899400AED9BFDEC9AFCE899F876
:0E011D000FD5F0DAE4CDFBE4CCFAE4C8F92209
:10012B00E8600FECC313FCED13FDEE13FEEF13FFB2
:03013B00D8F122D6
:1001E80002030DE493A3F8E493A34003F68001F21D
:1001F80008DFF48029E493A3F85407240CC8C33318
:10020800C4540F4420C8834004F456800146F6DFE6
:10021800E4800B01020408102040809003B5E47EBE
:10022800019360BCA3FF543F30E509541FFEE493DB
:10023800A360010ECF54C025E060A840B8E493A3A2
:10024800FAE493A3F8E493A3C8C582C8CAC583CACD
:10025800F0A3C8C582C8CAC583CADFE9DEE780BE85
:0103CA000032
:00000001FF
