:10116800C0F9A4B0999282F880904079243019127D
:0811780002780010BFFF8CC1DA
:100DE800013DFF013800013900013700082F1515B2
:100DF800151515151515013C0102250000C1030242
:100E08002B0000C104C10502400000C102024500D8
:100E18000001230004270000000002430000023AFA
:100E28000000C100014201023E0000C101022D0381
:0B0E380020014719022100FA012400EC
:100A3B0012101C1211ABD2AFD2A9120FEA5338BF4E
:100A4B00120FED120FEA5338BF120FED120FEA53CC
:100A5B0038BF120FED752F027530017531147532D9
:100A6B00017533027534147535017536027FE87ED6
:100A7B0003120FFD120F3930020CC202120FB7789E
:100A8B0004120A288F23300026C2007F0312104A5B
:100A9B007543008F44AC43AD44E412090B7B487A99
:100AAB00E179FA783F1208001209448E438F4430E3
:100ABB000105C201121077300405C204120B971204
:100ACB000E4DE53964077023F539AF42FEEF640133
:100ADB0070057542028014EF64024E700575420377
:100AEB008009EF64034E7003754201E539640670AB
:100AFB0032F539AF24FEEF700BE5426403700575D8
:100B0B002401801FEF64014E700BE54264037005F6
:100B1B00752402800EE52464027008E542640370BC
:100B2B0002F524E5396405701FF539AF24FEEF6437
:100B3B0001700405478011EF64024E700B7432256F
:100B4B0022F522E43521F521E53964046003020A1C
:100B5B0082F539AF24FEEF640170051547020A8256
:100B6B00EF64024E6003020A82C3E5229432E52150
:100B7B009400400F74CE2522F52274FF3521F52108
:0C0B8B00020A82752100752232020A82E3
:03000B00020C8361
:100C8300C0E0C083C082C0D075D000C000C007756B
:100C930080FF43A0C053A0DF53A01F7580FF43A074
:100CA300E053A01FAF37A8077401088002C333D8ED
:100CB300FCF58043A0C053A0DF53A01F742F25373A
:100CC300F8E690116893F58043A0E053A01F053721
:100CD300E53764087002F5370526E5267002052519
:100CE300B4E70DE525B40308752500752600D20386
:100CF300052CE52C7002052B64C7452B7006F52BDC
:100D0300F52CD2040541E54170020540B41F0DE501
:100D130040B40308754000754100D202053BE53B32
:100D23007002053AB42B0DE53AB40108753A007523
:100D33003B00D200053FE53F7002053EB4E70DE5F9
:100D43003EB40308753E00753F00D201D007D000C2
:090D5300D0D0D082D083D0E03270
:100B9700E542FB7A006401704BE52375F00A84F5A2
:100BA7002FE52375F00A8485F030753115753215F8
:100BB700753315AE43AF447C007D641209C5EF243D
:100BC7000AF534AE43AF447C007D641209C57E004C
:100BD7007F0ACFCDCFCECCCE1209C58F35AE43AF6E
:100BE70044020C79EB64024A703AE50A75F00A840C
:100BF700F52FE50A75F00A8485F030753114E5099B
:100C070075F00A84F532E50975F00A8485F03375C5
:100C17003414E50875F00A84F535E50875F00A849B
:100C270085F03622E54264037051752F16E5477546
:100C3700F00A84F530E54775F00A8485F03175329E
:100C470015753317AE21AF227C007D641209C5EFFD
:100C5700240AF534AE21AF227C007D641209C57EDB
:100C6700007F0ACFCDCFCECCCE1209C58F35AE21AE
:0C0C7700AF227C007D0A1209C58D3622D8
:1011AB00438E805389F0758ACD758CD4C28DD28CC9
:0111BB002211
:100E4D0020B0127F0A7E00120FFD20B00375390706
:100E5D0020B03F80FB20B1127F0A7E00120FFD20D3
:100E6D00B10375390620B12A80FB20B2127F0A7EAC
:100E7D0000120FFD20B20375390520B21580FB203D
:100E8D00B3107F0A7E00120FFD20B30375390430B5
:030E9D00B3FD2280
:10101C00E4F58043A0A053A0BF53A01F7580FF43ED
:10102C00A08053A09F53A01F7580FF43A0C053A066
:0E103C00DF53A01F7580FF43A0E053A01F22CA
:100FEA0043384085388043A0A053A0BF53A01F7F39
:030FFA00F47E0181
:100FFD00E4FDFCC3ED9FEC9E50147B4D7A03EB1B7F
:0E100D0070011AEB4A70F70DBD00010C80E572
:01101B0022B2
:0B114800D2947F057E00121153C29468
:10115300E4FDFCC3ED9FEC9E500A0000000DBD00B2
:04116300010C80EF0C
:011167002265
:1010A400E4FAEAC3940874809480501C121148EB4B
:1010B400C313FBD2941211533094034303807F1E55
:0A10C4007E001211530A80DAAF0318
:0110CE0022FF
:0210CF00AB076D
:1010D100E4FAEAC39408748094805013121148EB27
:1010E1001392947F28121153EBC313FB0A80E3D2AE
:0810F100947F507E00021153B0
:1010F900D206D2947F787E00121153C2947FBC7EAF
:1011090002121153D2947F507E00121153A294926D
:08111900067F78121153A206B3
:0111210022AB
:100FB7001210F97FCC1210CF7F441210CF7FC87E5A
:100FC700001211531210F97FCC1210CF7FBE1210EE
:100FD700CF1210A4A9071210A4EF540FFEE9FFE4E3
:020FE700FCFD0F
:010FE90022E5
:0411CB00D2A07F32FD
:0811CF0000AE071FEE70F922CB
:0F11BC00D2A11211CBC2A17F321211CFC2A02239
:0C11D700C2A11211CBD2A17F320211CFB5
:10118000C2A0A20692A17F321211CF1211CBC2A02F
:07119000D2A17F320211CF52
:03119700120F82B2
:10119A001211CBA2A19206C2A07F321211CFA206CF
:0111AA002222
:020F8200AD07B9
:100F8400E4FCECC39408748094805024C2A07F32A3
:100F94001211CFED30E704D2A18002C2A17F321238
:100FA40011CFD2A0ED25E0FD7F321211CF0C80D2FB
:020FB400C2A0D9
:010FB6002218
:10112200E4FCECC394087480948050171211CBED48
:1011320025E0FD30A103430501C2A07F321211CF89
:051142000C80DFAF0589
:011147002285
:02104A00AB07F2
:10104C001211BC7F90121197AF031211971211D786
:10105C001211BC7F91120F8212119A121122AD073C
:0A106C00D2061211801211D7AF0551
:011076002257
:090E4300070F233B171A0B0515DC
:040EED008C168D17BB
:100EF100C29300C29700D29300E4FEEEC39408743B
:100F01008094805011C29700EF1392A3EFC313FF97
:100F1100D297000E80E5AF17E4FEEEC3940874800B
:100F210094805011C29700EF1392A3EFC313FFD225
:070F310097000E80E5C2935A
:010F38002296
:100EA000C29300C29700D29300E4FDEDC39408748E
:100EB000809480500FC297EF1392A3EFC313FFD219
:100EC000970D80E7E4FDEDC3940874809480501181
:100ED000C297EEC313FE30A303430680D2970D8062
:0C0EE000E5C29300C29700C2A300AF0659
:010EEC0022E3
:100F39007B80E4FDFC7F8E120EEDE4FAEAC3940790
:100F490074809480502AAF03C007740F2AF8E6FD15
:100F590075F00A8475F010A4FFAEF0ED75F00A84FF
:100F6900EEFCEF45F0FDD007120EED0B0B0A80CC1D
:090F79007D807C007F8E020EEDEC
:101077007C81E4FBEBC3940774809480501EAF041B
:10108700120EA0EFC4540F75F00AA4FEEF540F2EF2
:0C109700FE74082BF8A6060C0C0B80D889
:0110A300222A
:10080000EC4D6011E8497017ED33EC3304600DE4F2
:10081000FCFFFEFD22E933E8330470F80209B01250
:10082000097B58046009E4CC248150062850090251
:1008300009BA2840030209B7C0E0EB4A7044B98006
:1008400006D0E0FB0209A6EF4E701CBD8008EBFF4E
:10085000EAFEE9FD80EBE98DF0A4FEE5F00208E98F
:10086000E9CDF9EAFEEBFFEF89F0A4FCE5F0CE89D3
:10087000F0A42EFFE435F0CD89F0A42DFEE435F090
:100880008067EF4E7005BD80D780C3EF8BF0A4ACBE
:10089000F0EE8BF0A42CFCE435F0F8EF8AF0A42CF9
:1008A000E5F038FCE433CB8DF0A42CFCE5F03BF80C
:1008B000EE8AF0A42CFCE5F038F8E433CF89F0A4FC
:1008C0002CFCE5F038CF3400CE89F0A42FFFE5F002
:1008D0003EFEE433C98DF0A42EFEE5F039CD8AF05A
:1008E000A42FFFE5F03EFEE43DFD33D0E0FB5007D2
:1008F0000BBB000F0209BAEC2CFCEF33FFEE33FE0A
:06090000ED33FD02099237
:1009060075F020800E75F010800575F0087D007E6C
:10091600007F003392D530D503120A1AEC3340100B
:10092600EF33FFEE33FEED33FDEC33FCD5F0ED2275
:0E093600E5F0247EA2D513CC92E7CDCEFF22B1
:10094400EDD2E7CD33EC3392D524814006E4FFFEAB
:10095400FDFC22FCE4CFCECDCC24E0501174FF800A
:10096400EDC3CC13CCCD13CDCE13CECF13CF0470A7
:07097400F030D5DE020A1A83
:10097B00E9D2E7C933E833F892D5EDD2E7CD33ECC2
:07098B0033FC5002B2D5223B
:10099200EC30E7100FBF000C0EBE00080DBD0004C6
:1009A2000BEB6014A2D5EB13FCED92E7FD2274FF72
:1009B200FCFDFEFF22E480F8A2D574FF13FC7D80CB
:0309C200E480EFDF
:03000000020D5C92
:0C0D5C00787FE4F6D8FD758147020DA3F6
:1009C500BC000BBE0029EF8DF084FFADF022E4CC16
:1009D500F875F008EF2FFFEE33FEEC33FCEE9DECDF
:1009E500984005FCEE9DFE0FD5F0E9E4CEFD22ED25
:1009F500F8F5F0EE8420D21CFEADF075F008EF2F6F
:100A0500FFED33FD4007985006D5F0F222C398FD5F
:050A15000FD5F0EA22FC
:0E0A1A00C3E49FFFE49EFEE49DFDE49CFC22ED
:100A2800E8600FECC313FCED13FDEE13FEEF13FFAC
:030A3800D8F122D0
:100D6800020A3BE493A3F8E493A34003F68001F25C
:100D780008DFF48029E493A3F85407240CC8C3338C
:100D8800C4540F4420C8834004F456800146F6DF5B
:100D9800E4800B0102040810204080900DE8E47EF6
:100DA800019360BCA3FF543F30E509541FFEE49350
:100DB800A360010ECF54C025E060A840B8E493A317
:100DC800FAE493A3F8E493A3C8C582C8CAC583CA42
:100DD800F0A3C8C582C8CAC583CADFE9DEE780BEFA
:010E4C0000A5
:00000001FF
