:0F023C000D08C0F9A4B0999282F8809090BFFF8E
:1001E80075A0A0E4F58075A0807580FF75A0C07526
:1001F800800275A0FF7580FF120003E51575F00AEF
:0B02080084740825F0F8E6F58080ED16
:10000300C2C4D2C275B07F85B01653160FE516640D
:100013000F604312021385B01653160FE516640FD3
:10002300603485B016E5162489601A24FC60112417
:10003300FE6008147012751501800D751502800895
:100043007515038003751504E516640F600885B004
:100053001653160F80F2D2C4C2C275B0BF85B01654
:1000630053160FE516640F604312021385B016533F
:10007300160FE516640F603485B016E51624496043
:100083001A24FC601124FE60081470127515058093
:100093000D75150680087515078003751508E51697
:1000A300640F600885B01653160F80F2D2C4D2C213
:1000B30075B0DF85B01653160FE516640F60431253
:1000C300021385B01653160FE516640F603485B01E
:1000D30016E5162429601A24FC601124FE60081416
:1000E3007012751509800D75150A800875150B803A
:1000F3000375150CE516640F600885B01653160FCB
:1001030080F2D2C4D2C275B0EF85B01653160FE594
:1001130016640F604312021385B01653160FE516CB
:10012300640F603485B016E5162419601A24FC6048
:100133001124FE600814701275150D800D75150ECF
:10014300800875150F8003751510E516640F600898
:0801530085B01653160F80F26F
:01015B002281
:040213007F057E00E5
:10021700E4FDFCC3ED9FEE6480F8EC648098501415
:100227007B4D7A03EB1B70011AEB4A70F70DBD008B
:04023700010C80DF57
:01023B0022A0
:0300000002015C9E
:0C015C00787FE4F6D8FD7581160201A33F
:100168000201E8E493A3F8E493A34003F68001F2C4
:1001780008DFF48029E493A3F85407240CC8C33398
:10018800C4540F4420C8834004F456800146F6DF67
:10019800E4800B010204081020408090023CE47EB9
:1001A800019360BCA3FF543F30E509541FFEE4935C
:1001B800A360010ECF54C025E060A840B8E493A323
:1001C800FAE493A3F8E493A3C8C582C8CAC583CA4E
:1001D800F0A3C8C582C8CAC583CADFE9DEE780BE06
:01024B0000B2
:00000001FF
