:10025600C0F9A4B0999282F880908880C6C0868E34
:02026600BF7F58
:0B027700020B0000010A00020800005A
:040268007FF47E01A0
:0B026C00EF1FAC0670011E4C70F62264
:03020B00E493FD7C
:10020E0090E00074FFF0A8077401088002C333D891
:0B021E00FC90C000F090E000EDF0222A
:10001E00900265E493FDE4FF12020E120268D3E52E
:10002E0009940FE5089427401AAE08AF097C277D86
:10003E001012019774562FF58274023EF5837F03DA
:10004E0012020B120268D3E50994E7E50894034007
:10005E0021AE08AF097C037DE81201977C007D0A72
:10006E0012019774562DF58274023CF5837F0412AB
:10007E00020B120268D3E5099463E508940040244C
:10008E00AE08AF097C007D641201977C007D0A12D8
:10009E00019774562DF58274023CF583E493FD7F2F
:1000AE000512020E120268D3E5099409E5089400C0
:1000BE004024AE08AF097C007D0A1201977C007DBA
:1000CE000A12019774562DF58274023CF583E4935F
:1000DE00FD7F0612020E120268AE08AF097C007D8B
:1000EE000A12019774562DF58274023CF583E4933F
:0D00FE00FD7F0712020E7FF47E0102026CEE
:10022900758CFF758AFF758D3C758BB0758916D2F3
:0A023900A9D2ABD2AFD28CD28E2234
:03000B0002000EE2
:0D000E00C0E0050CE50C7002050BD0E032DF
:03001B000201ECF3
:1001EC00C0E0758D3C758BB0050AE50A6414700C83
:0F01FC00850B08850C09F50BF50CF50AD0E032E0
:1002430012022990800074FFF090A000E4F01200E5
:030253001E80FB0F
:0300000002010BEF
:0C010B00787FE4F6D8FD75810C020152EB
:10019700BC000BBE0029EF8DF084FFADF022E4CC4C
:1001A700F875F008EF2FFFEE33FEEC33FCEE9DEC15
:1001B700984005FCEE9DFE0FD5F0E9E4CEFD22ED5B
:1001C700F8F5F0EE8420D21CFEADF075F008EF2FA5
:1001D700FFED33FD4007985006D5F0F222C398FD96
:0501E7000FD5F0EA2233
:10011700020243E493A3F8E493A34003F68001F2B9
:1001270008DFF48029E493A3F85407240CC8C333E9
:10013700C4540F4420C8834004F456800146F6DFB8
:10014700E4800B0102040810204080900277E47ECF
:10015700019360BCA3FF543F30E509541FFEE493AD
:10016700A360010ECF54C025E060A840B8E493A374
:10017700FAE493A3F8E493A3C8C582C8CAC583CA9F
:10018700F0A3C8C582C8CAC583CADFE9DEE780BE57
:01028200007B
:00000001FF
