:09013400010900010800010A00A4
:10008F0075A0A0E4F58075A0807580FFF50AC3E523
:10009F000A940874809480501BAF0AA80774010853
:1000AF008002C333D8FCF4F5807FE87E031201157C
:1000BF00050A80DAE4F50AC3E50A9408748094808F
:1000CF005004050A80F1AF0AA8077401088002C323
:0F00DF0033D8FCF4F5807FF47E0112011580D533
:1000EE0020B0107F0A7E0012011520B003750901A1
:1000FE0030B0FD20B1107F0A7E0012011520B10331
:07010E0075080130B1FD226C
:10011500E4FDFCC3ED9FEC9E50147B4D7A03EB1B75
:0E01250070011AEB4A70F70DBD00010C80E569
:0101330022A9
:03000000020003F8
:0C000300787FE4F6D8FD75810A02004AFF
:10000F0002008FE493A3F8E493A34003F68001F278
:10001F0008DFF48029E493A3F85407240CC8C333F2
:10002F00C4540F4420C8834004F456800146F6DFC1
:10003F00E4800B0102040810204080900134E47E1C
:10004F00019360BCA3FF543F30E509541FFEE493B6
:10005F00A360010ECF54C025E060A840B8E493A37D
:10006F00FAE493A3F8E493A3C8C582C8CAC583CAA8
:10007F00F0A3C8C582C8CAC583CADFE9DEE780BE60
:01013D0000C1
:00000001FF
