:0F098F000A08C0F9A4B0999282F880900112630F
:10088C0075A0A0E4F58075A0807580FF0516E516AF
:10089C0070020515B4F41CE515B40117E4F515F553
:1008AC00161512AF12EF3395E0C364809480500399
:1008BC00751263E51275F00A12096DF514E51275DF
:1008CC00F00A12096D85F013AD13AF14120917124B
:0408DC0008E080B8F8
:100917008D1775A0C075800175A0E074082FF8E6E3
:10092700F5807F017E0012094875A0C075800275A9
:10093700A0E074082517F8E6F5807F017E0002091C
:010947004867
:1008E000AF12EF3395E0FEC3EF9446EE6480948040
:1008F000501E75A0807580FEC3EF941EEE64809438
:1009000080501375A0A07580FFEF4E7009F580220E
:0709100075A0807580FF2235
:10094800E4FDFCC3ED9FEE6480F8EC6480985014DD
:100958007B4D7A03EB1B70011AEB4A70F70DBD0053
:04096800010C80DF1F
:01096C002268
:03000000020800F3
:0C080000787FE4F6D8FD758117020847E8
:10096D00C2D530F707B2D563F0FF05F030E70CB212
:10097D00D5F4048463F0FF05F080018430D502F4D2
:02098D00042242
:10080C0002088CE493A3F8E493A34003F68001F26E
:10081C0008DFF48029E493A3F85407240CC8C333ED
:10082C00C4540F4420C8834004F456800146F6DFBC
:10083C00E4800B010204081020408090098FE47EB4
:10084C00019360BCA3FF543F30E509541FFEE493B1
:10085C00A360010ECF54C025E060A840B8E493A378
:10086C00FAE493A3F8E493A3C8C582C8CAC583CAA3
:10087C00F0A3C8C582C8CAC583CADFE9DEE780BE5B
:01099E000058
:00000001FF
