:10034F00180EC0F9A4B0999282F8809040792430A9
:10035F00191202780010BFFFC18E010A000230008F
:10036F000002080000012700012800012900012FC9
:01037F00007D
:1004DD001205111204F712015B12001E12054212D1
:0A04ED0002D31201D212022980ECA2
:10001E00E5271460480460030200CE7F031203B18B
:10002E008F0B752D16752A15750D15752C15752ECC
:10003E0015E50B75F06484240AF526E50B75F0645E
:10004E0084E5F075F00A84F52BE50B75F00A8485CE
:10005E00F00CE529706A75A0807580FE22752D174B
:10006E00752A15750D15752C15752E15D3E5099474
:10007E0063E5089400400DAE08AF097C007D641264
:10008E00027E8F26D3E5099409E5089400401AAE46
:10009E0008AF097C007D6412027E7E007F0ACFCD00
:1000AE00CFCECCCE12027E8F2BAE08AF097C007D58
:1000BE000A12027E8D0CE529700675A0807580FDF2
:0100CE00220F
:10054200E5286007147009AF0B80027F6412049ED5
:010552002286
:1001D200E529704F75A080AF0BFEC3EF9496748033
:1001E20094805002803DC3EF9496EE6480948040E8
:1001F2000CEF94FAEE6480948050028022C3EF9454
:10020200FAEE64809480400CEF945EEE64809481F8
:100212005002800FC3EF945EEE64809481400775B4
:0702220080FB227580FF2222
:10022900E529704D75A080C3E50994E8E5089403B4
:100239005002803DC3E50994E8E5089403400CE5C4
:10024900099488E508941350028022C3E50994882B
:10025900E5089413400CE5099410E5089427500229
:10026900800FC3E5099410E508942740077580F7C6
:05027900227580FF2248
:1002D300E52F7021AF2DFEAD2AFC12040AAF0D7E6F
:1002E30000AD2C7C0012042FAF2E7E00AD267C00C7
:1002F3001204548018752D15752A15750D15752C56
:1003030015752E15752615752B15750C15AF2B7ECA
:0903130000AD0C7C0012047922FB
:10015B0020B31B7F057E0012032A20B30CE527700A
:10016B00047F0180027F008F2720B35A80FB20B2CF
:10017B001B7F057E0012032A20B20CE52870047F3A
:10018B000180027F008F2820B23C80FB20B11B7FB7
:10019B00057E0012032A20B10CE52970047F018033
:1001AB00027F008F2920B11E80FB20B0197F057EB6
:1001BB000012032A20B00CE52F70047F0180027F10
:0701CB00008F2F30B0FD2270
:0F055300D2A1D2A0120003C2A1120003C2A022A3
:0A056200C2A1D2A0120003D2A12210
:020381008F34B7
:10038300E4F535C3E535940874809480501FE53453
:1003930030E704D2A18002C2A1120003D2A0E53447
:0D03A30025E0F534120003C2A0053580D618
:0103B000222A
:10052A00D2A1120003D2A012000330A107C2A01266
:08053A000562C322C2A0D32216
:1003DF00E4F534C3E534940874809480501AD2A0A5
:1003EF00120003E53525E0F53530A103433501C291
:0A03FF00A0120003053480DBAF35C7
:0104090022D0
:0203B1008F3289
:1003B3001205537F9012038112052AAF3212038173
:1003C30012052A1205621205537F91120381120549
:0B03D3002A1203DF8F33120562AF33E4
:0103DE0022FC
:10049E008F321205537F9012038112052A7F40126C
:1004AE00038112052AAF3212038112052A02056258
:1004F700758CFF758AFF758D3C758BB0758916D223
:0A050700A9D2ABD2AFD28CD28E2263
:03000B0002000EE2
:0D000E00C0E00531E53170020530D0E03270
:03001B000204BE1E
:1004BE00C0E0758D3C758BB0050AE50A6414700CAE
:0F04CE00853008853109F530F531F50AD0E03277
:1005110075A0A0E4F58075A0C07580FF75A0FF757A
:0905210080FF75A0807580FF22A7
:10040A008C328D3375A0C075800112031C75A0C093
:10041A0075800275A0FF740E2533F8E6F5807F011A
:05042A007E0002032A20
:10042F008C328D3375A0C075800412031C75A0C06B
:10043F0075800875A0FF740E2533F8E6F5807F01EF
:05044F007E0002032AFB
:100454008C328D3375A0C075801012031C75A0C03A
:1004640075802075A0FF740E2533F8E6F5807F01B2
:050474007E0002032AD6
:100479008C328D3375A0C075804012031C75A0C0E5
:1004890075808075A0FF740E2533F8E6F5807F012D
:050499007E0002032AB1
:0E031C0075A0FF740E2FF8E6F5807F017E00BD
:10032A00E4FDFCC3ED9FEE6480F8EC648098501401
:10033A007B4D7A03EB1B70011AEB4A70F70DBD0077
:04034A00010C80DF43
:01034E00228C
:040003007F0EDFFE8F
:0100070022D6
:030000000200CF2C
:0C00CF00787FE4F6D8FD7581350201163B
:10027E00BC000BBE0029EF8DF084FFADF022E4CC64
:10028E00F875F008EF2FFFEE33FEEC33FCEE9DEC2D
:10029E00984005FCEE9DFE0FD5F0E9E4CEFD22ED73
:1002AE00F8F5F0EE8420D21CFEADF075F008EF2FBD
:1002BE00FFED33FD4007985006D5F0F222C398FDAE
:0502CE000FD5F0EA224B
:1000DB000204DDE493A3F8E493A34003F68001F25A
:1000EB0008DFF48029E493A3F85407240CC8C33326
:1000FB00C4540F4420C8834004F456800146F6DFF5
:10010B00E4800B010204081020408090034FE47E32
:10011B00019360BCA3FF543F30E509541FFEE493E9
:10012B00A360010ECF54C025E060A840B8E493A3B0
:10013B00FAE493A3F8E493A3C8C582C8CAC583CADB
:10014B00F0A3C8C582C8CAC583CADFE9DEE780BE93
:01038000007C
:00000001FF
