:10083D000C2BC0F9A4B0999282F88090BFFF0138BB
:10084D00000127000225006401280A01210001236F
:01085D00009A
:1005F10012085F1208B4753C0B75390B752A0B751F
:100601003B0B753E0B75370B753A0B75290B1204B5
:10061100D21203BEAF3C7E00AD397C00120787AF1A
:100621002A7E00AD3B7C001207ACAF3E7E00AD37A9
:100631007C001207D1AF3A7E00AD297C001207F68B
:0206410080CC6B
:1003BE00E522640160030204D1E52114604F14703C
:1003CE000302047C240260030204D1E4F53C85237D
:1003DE0039F52A753B0B753E0BAE25AF26FC7D64B9
:1003EE001201D38F37AE25AF267C007D641201D368
:1003FE007E007F0ACFCDCFCECCCE1201D38F3AAEB8
:10040E0025AF267C007D0A1201D38D2922053D756C
:10041E003C0B75390B752A0B753B0B753E0BAE25D8
:10042E00AF267C007D641201D37E007F0ACFCDCF34
:10043E00CECCCE1201D3AB078B3AAE25AF267C00C5
:10044E007D0A1201D3AA058A29E53D64647074F50C
:10045E003C852339F52A753B0B753E0BAE25AF2631
:10046E00FC7D641201D38F378B3A8A298052053D69
:10047E00E4F53C852339F52A753B0B753E0B753734
:10048E000B753A0B75290BE53D64647036AE25AFDE
:10049E0026FC7D641201D38F37AE25AF267C007DFE
:1004AE00641201D37E007F0ACFCDCFCECCCE120107
:1004BE00D38F3AAE25AF267C007D0A1201D38D294B
:0404CE00E4F53D22F2
:0E08B400758901758CFC758A17D2AFD2A92206
:03000B0002068565
:10068500C0E0C0F0C083C082C0D075D000C000C03B
:1006950001C002C003C004C005C006C007758CFCBC
:1006A500758A17120236D007D006D005D004D003BC
:1006B500D002D001D000D0D0D082D083D0F0D0E00D
:0106C5003202
:100236000524E52314605F1470030202EB147003B7
:10024600020353240360030203BD75A080D3E52493
:10025600940A748094805010AF38A80774010880FF
:1002660002C333D8FC02037CE524D395285003024D
:10027600038B0538AF38A8077401088002C333D84A
:10028600FCF4F580E4F524E538640860030203BD58
:10029600752301F5382275A080D3E5249526E495CB
:1002A600255010AF38A8077480088002C313D8FC05
:1002B60002037CD3E524940A7480948050030203DD
:1002C6008B0538AF38A8077480088002C313D8FCA2
:1002D600F4F580E4F524E538640860030203BD758F
:1002E6002302F5382275A080D3E5249526E49525CA
:1002F600501EAF38A8077401088002C333D8FCFF2C
:10030600AE38A8067480088002C313D8FC4F8066F6
:10031600D3E524940A74809480500280680538AF2F
:1003260038A8077401088002C333D8FCFFAE38A88A
:10033600067480088002C313D8FC4FF4F580E4F5F8
:1003460024E53864047070752303F5382275A0809F
:10035600D3E5249526E495255020AF38A8077410D8
:10036600088002C333D8FCFFAE38A806740808809C
:1003760002C313D8FC4FF4F58022D3E524940A7403
:1003860080948050047580FF220538AF38A8077422
:1003960010088002C333D8FCFFAE38A806740808DC
:1003A6008002C313D8FC4FF4F580E4F524E53864E5
:0803B600047004F523F5382260
:1004D20020B0147F057E0012070720B002B28C30D4
:1004E200B00302056480F820B11C7F057E0012076C
:1004F2000720B10D7522010521E52164037002F583
:100502002120B15E80FB20B2307F057E00120707FA
:1005120020B221740A2528F52874322526F526E40E
:100522003525F525E526B42C0BE525B40106752500
:100532000075266420B22B80FB20B3267F057E0047
:1005420012070720B31974CE2526F52674FF352528
:10055200F525E526643245257005F5257526FA3020
:03056200B3FD22C4
:0F08A500D2A1D2A0120003C2A1120003C2A0224E
:0A08C200C2A1D2A0120003D2A122AD
:02072C008F0834
:10072E00E4F509C3E509940874809480501FE50828
:10073E0030E704D2A18002C2A1120003D2A0E508C4
:0D074E0025E0F508120003C2A0050980D6C1
:01075B00227B
:10087800D2A1120003D2A012000330A107C2A01215
:0808880008C2C322C2A0D32262
:10089000C2A0A20092A1120003D2A0120003C2A023
:0508A000D2A1020003DB
:10075C00E4F50AC3E50A940874809480501AD2A078
:10076C00120003E50B25E0F50B30A103430B01C28E
:0A077C00A0120003050A80DBAF0B9A
:010786002250
:020643008F0C1A
:100645001208A57F9012072C120878AF0C12072C00
:100655001208781208C21208A57F9112072C1208F9
:100665007812075C8F0D1208C2AC0DE412011E7BD7
:0F067500777ABE791F783D12000E1201528F0D59
:010684002253
:10081B008F0E8D0F1208A57FA012072C120878AF30
:10082B000E12072C120878AF0F12072C1208780241
:02083B0008C2F1
:0206C6008F1093
:1006C8001208A57FA012072C120878AF1012072C69
:1006D8001208781208C21208A57FA112072C120866
:1006E8007812075C8F11C2001208901208C2AF116D
:0106F80022DF
:10085F0075A0A0E4F58075A0C07580FF75A0FF7529
:09086F0080FF75A0807580FF2256
:100787008C128D1375A0C07580011206F975A0C073
:1007970075800275A0FF742B2513F8E6F5807F019D
:0507A7007E00020707BF
:1007AC008C128D1375A0C07580041206F975A0C04B
:1007BC0075800875A0FF742B2513F8E6F5807F0172
:0507CC007E000207079A
:1007D1008C128D1375A0C07580101206F975A0C01A
:1007E10075802075A0FF742B2513F8E6F5807F0135
:0507F1007E0002070775
:1007F6008C128D1375A0C07580401206F975A0C0C5
:1008060075808075A0FF742B2513F8E6F5807F01AF
:050816007E000207074F
:0E06F90075A0FF742B2FF8E6F5807F017E00C0
:10070700E4FDFCC3ED9FEE6480F8EC648098501420
:100717007B4D7A03EB1B70011AEB4A70F70DBD0096
:04072700010C80DF62
:01072B0022AB
:040003007F0EDFFE8F
:0100070022D6
:10000E00EC4D6011E8497017ED33EC3304600DE4EC
:10001E00FCFFFEFD22E933E8330470F80201BE1244
:10002E00018958046009E4CC248150062850090245
:10003E0001C82840030201C5C0E0EB4A7044B980F4
:10004E0006D0E0FB0201B4EF4E701CBD8008EBFF42
:10005E00EAFEE9FD80EBE98DF0A4FEE5F00200F783
:10006E00E9CDF9EAFEEBFFEF89F0A4FCE5F0CE89CD
:10007E00F0A42EFFE435F0CD89F0A42DFEE435F08A
:10008E008067EF4E7005BD80D780C3EF8BF0A4ACB8
:10009E00F0EE8BF0A42CFCE435F0F8EF8AF0A42CF3
:1000AE00E5F038FCE433CB8DF0A42CFCE5F03BF806
:1000BE00EE8AF0A42CFCE5F038F8E433CF89F0A4F6
:1000CE002CFCE5F038CF3400CE89F0A42FFFE5F0FC
:1000DE003EFEE433C98DF0A42EFEE5F039CD8AF054
:1000EE00A42FFFE5F03EFEE43DFD33D0E0FB5007CC
:1000FE000BBB000F0201C8EC2CFCEF33FFEE33FEFE
:06010E00ED33FD0201A02B
:1001140075F020800E75F010800575F0087D007E66
:10012400007F003392D530D503120228EC334010FF
:10013400EF33FFEE33FEED33FDEC33FCD5F0ED226F
:0E014400E5F0247EA2D513CC92E7CDCEFF22AB
:10015200EDD2E7CD33EC3392D524814006E4FFFEA5
:10016200FDFC22FCE4CFCECDCC24E0501174FF8004
:10017200EDC3CC13CCCD13CDCE13CECF13CF0470A1
:07018200F030D5DE02022877
:10018900E9D2E7C933E833F892D5EDD2E7CD33ECBC
:0701990033FC5002B2D52235
:1001A000EC30E7100FBF000C0EBE00080DBD0004C0
:1001B0000BEB6014A2D5EB13FCED92E7FD2274FF6C
:1001C000FCFDFEFF22E480F8A2D574FF13FC7D80C5
:0301D000E480EFD9
:0300000002056591
:0C056500787FE4F6D8FD75813E0205ACFD
:1001D300BC000BBE0029EF8DF084FFADF022E4CC10
:1001E300F875F008EF2FFFEE33FEEC33FCEE9DECD9
:1001F300984005FCEE9DFE0FD5F0E9E4CEFD22ED1F
:10020300F8F5F0EE8420D21CFEADF075F008EF2F68
:10021300FFED33FD4007985006D5F0F222C398FD59
:050223000FD5F0EA22F6
:0E022800C3E49FFFE49EFEE49DFDE49CFC22E7
:100571000205F1E493A3F8E493A34003F68001F2AA
:1005810008DFF48029E493A3F85407240CC8C3338B
:10059100C4540F4420C8834004F456800146F6DF5A
:1005A100E4800B010204081020408090083DE47EA5
:1005B100019360BCA3FF543F30E509541FFEE4934F
:1005C100A360010ECF54C025E060A840B8E493A316
:1005D100FAE493A3F8E493A3C8C582C8CAC583CA41
:1005E100F0A3C8C582C8CAC583CADFE9DEE780BEF9
:01085E000099
:00000001FF
