:1000E30048656C6C6F2065766572796F6E6521006B
:10009D007580FFC2A0D2A1D292D292AF80C292EF50
:0300AD0020E7F653
:0100B000222D
:1000C300AE0712009DC2A0C2A18E80D292C292221C
:1000D300AE0712009DD2A0C2A18E80D292C29222FC
:10008700C2927F3C1200C37F0C1200C37F0612008E
:06009700C37F010200C35B
:1000B100ED7006EF2480FC8004EF24C0FCAF040245
:0200C10000C37A
:100003008B088A09890A1200B1AB08AA09A90A1246
:10001300006E6013050AE50A7002050914F912005F
:080023006EFF1200D380E222FF
:10002B00E4FDFCC3ED9FEE6480F8EC648098501403
:10003B007B4D7A03EB1B70011AEB4A70F70DBD0079
:04004B00010C80DF45
:01004F00228E
:100050001200877BFF7A0079E3E4FDFCFF120003C6
:0E0060007F181200C37FD07E0712002B80F2A3
:030000000200F308
:0C00F300787FE4F6D8FD75810A02005009
:10006E00BB010689828A83E0225002E722BBFE0290
:09007E00E32289828A83E49322C3
:00000001FF
