:1000030075A0A0E4F58075A0807580FFE4F508C3B2
:10001300E5089408748094805014AF08A80774010D
:10002300088002C333D8FC120079050880E1E4F5A7
:1000330009C3E5099408748094805014AF09A80794
:100043007480088002C313D8FC120079050980E18B
:10005300E4F50AC3E50A94057480948050AE758074
:10006300FF7F2C7E01120080E4F5807F2C7E01123D
:060073000080050A80DD9B
:07007900F4F5807FC87E0052
:10008000E4FDFCC3ED9FEE6480F8EC6480985014AE
:100090007B4D7A03EB1B70011AEB4A70F70DBD0024
:0400A000010C80DFF0
:0100A4002239
:030000000200A556
:0C00A500787FE4F6D8FD75810A020003A4
:00000001FF
