:09089E00E5A0541F4480F5A022DE
:0B089300EF1FAC0670011E4C70F62237
:10086700438E805389F0758AAE758CFBC28DD2A9F1
:03087700D2AF22DB
:03000B00020843A5
:10084300C0E0C0D0758AAE758CFB0509E509B50813
:1008530004D280800AE50964647004C280F509D07B
:04086300D0D0E032DF
:1008000020B03F7F647E0012089320B035E50A14C3
:10081000601614601B14602024037023C280D28CE5
:1008200075080A750A018017750832750A02800F6B
:1008300075085A750A038007D280C28CE4F50A3025
:03084000B0FD22E6
:0D087A0012086712089ED28012080080FB51
:030000000208876C
:0C088700787FE4F6D8FD75810A02087A3B
:00000001FF
