:10070D000D1DC0F9A4B0999282F88090BFFFC60765
:10071D0008323B17100A0213070F000000100A02DF
:0A072D001301170001180001160067
:10053F0012089A1208B31206461208DF7FCC120770
:10054F00607F4412076075310B752E0B751C0B7590
:10055F00300B753A0B752A0B752F0B751B0BC28859
:10056F00D2A8D2AFD2B81206DE1206AC8F1912047F
:10057F00C4AF317E00AD2E7C00120787AF1C7E000A
:10058F00AD307C001207ACAF3A7E00AD2A7C001272
:0F059F0007D1AF2F7E00AD1B7C001207F680C77F
:0F08C500E51614600604700602000E12023522BA
:10000E00E52B14605F1470030200E7147003020105
:10001E007D14700302021124046003020234E535DC
:10002E0075F00A12083FF531E53575F00A12083FF2
:10003E0085F02E751C0AE53475F00A12083FF5306E
:10004E00E53475F00A12083F85F03A752A0AE53351
:10005E0075F00A12083FF52FE53375F00A12083FC6
:10006E0085F01B22E53575F00A12083FF531E535AE
:10007E0075F00A12083F85F02E751C0AE53475F0EE
:10008E000A12083FF530E53475F00A12083F85F084
:10009E003A752A0A752F0B751B0B0532E53264145F
:1000AE006003020234E51764017006F508F5178047
:1000BE000AE51864017004F508F5181206461206D2
:1000CE00DEE53375F00A12083FF52FE53375F00AB9
:1000DE0012083F85F01B02020DE53575F00A120875
:1000EE003FF531E53575F00A12083F85F02E751C87
:1000FE000A75300B753A0B752A0AE53375F00A123C
:10010E00083FF52FE53375F00A12083F85F01B0501
:10011E0032E53264146003020234E517640170168E
:10012E000509AF09EF3395E0FEEF643C4E7002F522
:10013E0009E4F517801BE518640170151509AF0960
:10014E00EF3395E0C364809480500375093BE4F56A
:10015E00181206461206DEE53475F00A12083FF54F
:10016E0030E53475F00A12083F85F03A02020D753B
:10017E00310B752E0B751C0AE53475F00A12083F0B
:10018E00F530E53475F00A12083F85F03A752A0A03
:10019E00E53375F00A12083FF52FE53375F00A12B4
:1001AE00083F85F01B0532E53264147079E517645B
:1001BE00017016050AAF0AEF3395E0FEEF64184E94
:1001CE007002F50AE4F517801BE518640170151529
:1001DE000AAF0AEF3395E0C3648094805003750A2A
:1001EE0017E4F5181206461206DEE53575F00A120A
:1001FE00083FF531E53575F00A12083F85F02EE41B
:10020E00F5322275310B752E0B751C0B75300B7577
:10021E003A0BE51975F00A84F52AE51975F00A848A
:07022E0085F02F751B0C2267
:10023500E52C1460591470030203211470030203A2
:10024500AF24036003020437E50F75F00A12083F77
:10025500F531E50F75F00A12083F85F02E751C0A79
:10026500E51075F00A12083FF530E51075F00A1231
:10027500083F85F03A752A0AE51175F00A12083F1C
:10028500F52FE51175F00A12083F85F01B22E50FE1
:1002950075F00A12083FF531E50F75F00A12083FAF
:1002A50085F02E751C0AE51075F00A12083FF53029
:1002B500E51075F00A12083F85F03A752A0A752F80
:1002C5000B751B0B0532E53264146003020437E538
:1002D50017640170150511F517AF11EF3395E0FEA1
:1002E500EF643C4E701EF511801AE5186401701418
:1002F5001511F518AF11EF3395E0FEBEFF06BFFFF0
:100305000375113BE51175F00A12083FF52FE5114C
:1003150075F00A12083F85F01B020434E50F75F0ED
:100325000A12083FF531E50F75F00A12083F85F00E
:100335002E751C0A75300B753A0B752A0AE5117571
:10034500F00A12083FF52FE51175F00A12083F85EE
:10035500F01B0532E53264146003020437E51764C7
:100365000170150510F517AF10EF3395E0FEEF643A
:100375003C4E701EF510801AE518640170141510B6
:10038500F518AF10EF3395E0FEBEFF06BFFF03750E
:10039500103BE51075F00A12083FF530E51075F0D1
:1003A5000A12083F85F03A02043475310B752E0B9D
:1003B500751C0AE51075F00A12083FF530E5107551
:1003C500F00A12083F85F03AE51175F00A12083F68
:1003D500F52FE51175F00A12083F85F01B0532E58A
:1003E500326414704DE51764017015050FF517AFEC
:1003F5000FEF3395E0FEEF64184E701EF50F801A6F
:10040500E51864017014150FF518AF0FEF3395E07B
:10041500FEBEFF06BFFF03750F17E50F75F00A1245
:10042500083FF531E50F75F00A12083F85F02EE417
:03043500F532227B
:10086100E533B5110DE534B51008E535B50F037560
:0D0871002D010532E53264647002F52D2280
:1008B300758901758C3C758A3CD2A9D2AFD28CC2A2
:0208C300B92258
:03000300020006F2
:0100060032C7
:03000B000205AE3D
:1005AE00C0E0C0F0C083C082C0D075D000C000C013
:1005BE0001C002C003C004C005C006C007758C3C54
:1005CE00758A3C1208C5120861E52D640170137519
:1005DE00A0807580FE0532E532640570057580FFDA
:1005EE00F532D007D006D005D004D003D002D0010A
:0D05FE00D000D0D0D082D083D0F0D0E03239
:10081B008D40C29300C29700D29312087EE54075BB
:10082B00F00A84C454F0FFE54075F00A84E5F04FFC
:04083B00FF02087E32
:10087E00E4FEEEC3940874809480500FC297EF1379
:0B088E0092A3EFC313FFD2970E80E788
:01089900223C
:10060B00C29300C29700D29312087EE4FFEFC3940B
:10061B0008748094805011C297EDC313FD30A3036F
:10062B00430580D2970F80E5C2A3EDC4540FFFEDB5
:0A063B00540FFEEF75F00AA42EFF25
:010645002292
:10064600753F80E4FD7F8E12081BE4F53EC3E53E50
:1006560094077480948050147408253EF8E6FDAF24
:100666003F12081B053F053F053E80E17D807F8EDA
:0306760002081B5C
:1006DE00753E81E4FD7F8E12081BE4FCECC394078B
:1006EE00748094805012AF3E12060B74332CF8A611
:0F06FE0007053E053E0C80E47D807F8E02081BC1
:0A08DF00C2941208D4D2940208D487
:020760008F3FC9
:10076200E4F540C3E5409408748094805016C29426
:10077200E53F1392941208E9D294E53FC313F53F83
:04078200054080DFCF
:010786002250
:10073800E4F53FC3E53F9408748094805017C29451
:10074800E540C313F540D294309403434080120827
:07075800E9053F80DEAF4020
:01075F002277
:1006AC001208DF7FCC1207607F441207601208D457
:1006BC001208DF7FCC1207607FBE1207601207386A
:1006CC008F3E120738EFC454F0FFE53EC4540F427E
:0106DC000716
:0106DD0022FA
:1004C40020B01C7F057E0012068720B00DE4F516CF
:1004D400052BE52B64047002F52B20B05080FB2023
:1004E400B11C7F057E0012068720B10D751601052B
:1004F4002CE52C64047002F52C20B13180FB20B271
:10050400127F057E0012068720B20375170120B200
:100514001C80FB20B3177F057E0012068720B30DD5
:10052400751A01751801E52B7003752B0430B30A95
:0B053400E51A64017004F51AF52B2293
:100787008C3E8D3F75A0C075800112067975A0C09B
:1007970075800275A0FF741D253FF8E6F5807F017F
:0507A7007E0002068740
:1007AC008C3E8D3F75A0C075800412067975A0C073
:1007BC0075800875A0FF741D253FF8E6F5807F0154
:0507CC007E000206871B
:1007D1008C3E8D3F75A0C075801012067975A0C042
:1007E10075802075A0FF741D253FF8E6F5807F0117
:0507F1007E00020687F6
:1007F6008C3E8D3F75A0C075804012067975A0C0ED
:1008060075808075A0FF741D253FF8E6F5807F0191
:050816007E00020687D0
:10089A0075A0A0E4F58075A0C07580FF75A0FF75EE
:0908AA0080FF75A0807580FF221B
:0A08D40000007F067E5DDEFEDFFC03
:0108DE0022F7
:0908E900007F017ED9DEFEDFFC78
:0108F20022E3
:0E06790075A0FF741D2FF8E6F5807F017E004E
:10068700E4FDFCC3ED9FEE6480F8EC6480985014A1
:100697007B4D7A03EB1B70011AEB4A70F70DBD0017
:0406A700010C80DFE3
:0106AB00222C
:03000000020438BF
:0C043800787FE4F6D8FD75814002047F57
:10083F00C2D530F707B2D563F0FF05F030E70CB241
:10084F00D5F4048463F0FF05F080018430D502F401
:02085F00042271
:1004440002053FE493A3F8E493A34003F68001F28A
:1004540008DFF48029E493A3F85407240CC8C333B9
:10046400C4540F4420C8834004F456800146F6DF88
:10047400E4800B010204081020408090070DE47E04
:10048400019360BCA3FF543F30E509541FFEE4937D
:10049400A360010ECF54C025E060A840B8E493A344
:1004A400FAE493A3F8E493A3C8C582C8CAC583CA6F
:1004B400F0A3C8C582C8CAC583CADFE9DEE780BE27
:0107370000C1
:00000001FF
